:020000040800F2
:100000000000012045550008255100083351000823
:1000100041510008475100084D5100080000000000
:100020000000000000000000000000005351000824
:1000300061510008000000006F5100087D51000868
:1000400095550008955500089555000895550008E8
:1000500095550008955500089555000895550008D8
:1000600095550008955500089555000895550008C8
:1000700095550008955500089555000895550008B8
:1000800095550008955500089555000895550008A8
:100090009555000895550008955500089555000898
:1000A0009555000895550008955500089555000888
:1000B000955500080000000000000000955500085C
:1000C0009555000895550008955500089555000868
:1000D00095550008AD5400089555000821550008B5
:1000E000955500089555000800000000000000002C
:1000F0000000000000000000000000000000000000
:10010000000000009555000800000000955500080B
:1001100000000000000000009555000895550008FB
:100120009555000895550008955500089555000807
:1001300095550008000000000000000000000000CD
:1001400095550008955500089555000800000000D9
:1001500095550008955500089555000895550008D7
:1001600095550008955500089555000800000000B9
:10017000955500089555000800000000000000009B
:0C0180009555000895550008955500089D
:1001900010B5054C237833B9044B13B10448AFF3C1
:1001A00000800123237010BD3401002000000000F6
:1001B000E417010808B5034B1BB103490348AFF32B
:1001C000008008BD0000000038010020E41701088D
:1001D00007B500F006F8BDE807406FF003030439E7
:1001E00003E0042301EB82015242920000D17047E8
:1001F0002DE9F047B0F800A044888588C6880089BA
:10020000C6F57046C4EA064CC5EA004E0024002537
:10021000002600275FF000085FF0000988581AFBED
:1002200000881AFB10992CFB04882CFB15994EFBB7
:1002300006884EFB179926002F00C0EA0814C0EA72
:1002400029352804C0EA24408850D218E6D1BDE8F8
:10025000F08707B500F006F8BDE807406FF001032E
:10026000023903E0022301EB42015242520000D165
:1002700070472DE97044B0F800A044888588C6888E
:100280000089C6F57046C4EA064CC5EA004E002453
:1002900000250026885A1AFB00662CFB04664EFBDC
:1002A00005662500C0EA061420148852D218F1D140
:1002B000BDE87084000000000000000000000000A5
:1002C00001F0FF01102A2BDB10F0070F08D010F807
:1002D000013B013A8B422DD010F0070F42B3F6D10B
:1002E000F0B441EA012141EA014122F007047FF024
:1002F00000070023F0E80256083C85EA010586EA7B
:10030000010685FA47F5A3FA87F586FA47F6A5FAB6
:1003100087F68EB9EED1F0BC01F0FF0102F00702C2
:1003200032B110F8013B013A83EA010313B1F8D16D
:100330000020704701387047002D06BF354603384E
:10034000073815F0010F07D1013015F4807F02BF87
:10035000013015F4C03F0130F0BC0138704700BFD8
:1003600081F0004102E000BF83F0004330B54FEA66
:1003700041044FEA430594EA050F08BF90EA020FD3
:100380001FBF54EA000C55EA020C7FEA645C7FEA66
:10039000655C00F0E2804FEA5454D4EB5555B8BF89
:1003A0006D420CDD2C4480EA020281EA030382EAFA
:1003B000000083EA010180EA020281EA0303362D8C
:1003C00088BF30BD11F0004F4FEA01314FF4801C5F
:1003D0004CEA113102D0404261EB410113F0004F71
:1003E0004FEA03334CEA133302D0524263EB430328
:1003F00094EA050F00F0A780A4F10104D5F1200EC6
:100400000DDB02FA0EFC22FA05F2801841F1000120
:1004100003FA0EF2801843FA05F359410EE0A5F1F4
:1004200020050EF1200E012A03FA0EFC28BF4CF025
:10043000020C43FA05F3C01851EBE37101F00045DB
:1004400007D54FF0000EDCF1000C7EEB00006EEBE8
:100450000101B1F5801F1BD3B1F5001F0CD3490872
:100460005FEA30004FEA3C0C04F101044FEA4452C9
:1004700012F5800F80F09A80BCF1004F08BF5FEA50
:10048000500C50F1000041EB045141EA050130BD30
:100490005FEA4C0C404141EB010111F4801FA4F1D3
:1004A0000104E9D191F0000F04BF01460020B1FA28
:1004B00081F308BF2033A3F10B03B3F120020CDA60
:1004C0000C3208DD02F1140CC2F10C0201FA0CF03E
:1004D00021FA02F10CE002F11402D8BFC2F1200CA3
:1004E00001FA02F120FA0CFCDCBF41EA0C01904059
:1004F000E41AA2BF01EB0451294330BD6FEA0404A2
:100500001F3C1CDA0C340EDC04F11404C4F120028C
:1005100020FA04F001FA02F340EA030021FA04F39E
:1005200045EA030130BDC4F10C04C4F1200220FAF5
:1005300002F001FA04F340EA0300294630BD21FA33
:1005400004F0294630BD94F0000F83F4801306BFF9
:1005500081F480110134013D4EE77FEA645C18BFED
:100560007FEA655C29D094EA050F08BF90EA020F84
:1005700005D054EA000C04BF1946104630BD91EA7C
:10058000030F1EBF0021002030BD5FEA545C05D17F
:100590004000494128BF41F0004130BD14F58004BE
:1005A0003CBF01F5801130BD01F0004545F0FE4132
:1005B00041F470014FF0000030BD7FEA645C1ABF67
:1005C000194610467FEA655C1CBF0B46024650EA9E
:1005D000013406BF52EA033591EA030F41F40021CA
:1005E00030BD00BF90F0000F04BF0021704730B550
:1005F0004FF4806404F132044FF000054FF0000125
:1006000050E700BF90F0000F04BF0021704730B5E5
:100610004FF4806404F1320410F0004548BF4042BA
:100620004FF000013EE700BF42004FEAE2014FEA0F
:1006300031014FEA02701FBF12F07F4393F07F4FEA
:1006400081F06051704792F0000F14BF93F07F4F1C
:10065000704730B54FF4607401F0004521F000415F
:1006600020E700BF50EA010208BF704730B54FF0E5
:1006700000050AE050EA010208BF704730B511F0EA
:10068000004502D5404261EB41014FF4806404F122
:1006900032045FEA915C3FF4DCAE4FF003025FEAA4
:1006A000DC0C18BF03325FEADC0C18BF033202EB2C
:1006B000DC02C2F1200300FA03FC20FA02F001FA86
:1006C00003FE40EA0E0021FA02F11444C1E600BF25
:1006D00070B54FF0FF0C4CF4E06C1CEA11541DBFD8
:1006E0001CEA135594EA0C0F95EA0C0F00F0DEF8A3
:1006F0002C4481EA030621EA4C5123EA4C5350EA88
:10070000013518BF52EA033541F4801143F48013D8
:1007100038D0A0FB02CE4FF00005E1FB02E506F069
:100720000042E0FB03E54FF00006E1FB03569CF0BE
:10073000000F18BF4EF0010EA4F1FF04B6F5007FC4
:1007400064F5407404D25FEA4E0E6D4146EB060636
:1007500042EAC62141EA55514FEAC52040EA5E50BF
:100760004FEACE2EB4F1FD0C88BFBCF5E06F1ED869
:10077000BEF1004F08BF5FEA500E50F1000041EBA0
:10078000045170BD06F0004646EA010140EA02004D
:1007900081EA0301B4EB5C04C2BFD4EB0C0541EA6F
:1007A000045170BD41F480114FF0000E013C00F384
:1007B000AB8014F1360FDEBF002001F0004170BDA8
:1007C000C4F10004203C35DA0C341BDC04F11404C1
:1007D000C4F1200500FA05F320FA04F001FA05F24D
:1007E00040EA020001F0004221F0004110EBD3701A
:1007F00021FA04F642EB06015EEA430E08BF20EA46
:10080000D37070BDC4F10C04C4F1200500FA04F3E8
:1008100020FA05F001FA04F240EA020001F000417A
:1008200010EBD37041F100015EEA430E08BF20EAED
:10083000D37070BDC4F1200500FA05F24EEA020E35
:1008400020FA04F301FA05F243EA020321FA04F064
:1008500001F0004121FA04F220EA020000EBD3701B
:100860005EEA430E08BF20EAD37070BD94F0000F1B
:100870000FD101F00046400041EB010111F4801F4F
:1008800008BF013CF7D041EA060195F0000F18BF00
:10089000704703F00046520043EB030313F4801F3C
:1008A00008BF013DF7D043EA0603704794EA0C0FF6
:1008B0000CEA135518BF95EA0C0F0CD050EA41060C
:1008C00018BF52EA4306D1D181EA030101F0004189
:1008D0004FF0000070BD50EA410606BF10461946B1
:1008E00052EA430619D094EA0C0F02D150EA0136BD
:1008F00013D195EA0C0F05D152EA03361CBF1046FE
:1009000019460AD181EA030101F0004141F0FE419C
:1009100041F470014FF0000070BD41F0FE4141F420
:10092000780170BD70B54FF0FF0C4CF4E06C1CEA20
:1009300011541DBF1CEA135594EA0C0F95EA0C0FD5
:1009400000F0A7F8A4EB050481EA030E52EA033590
:100950004FEA013100F088804FEA03334FF08055B1
:1009600045EA131343EA12634FEA022245EA1115DE
:1009700045EA10654FEA00260EF000419D4208BF8F
:10098000964244F1FD0404F5407402D25B084FEA3C
:100990003202B61A65EB03055B084FEA32024FF4E8
:1009A00080104FF4002CB6EB020E75EB030E22BF45
:1009B000B61A754640EA0C005B084FEA3202B6EB05
:1009C000020E75EB030E22BFB61A754640EA5C00B4
:1009D0005B084FEA3202B6EB020E75EB030E22BF44
:1009E000B61A754640EA9C005B084FEA3202B6EB45
:1009F000020E75EB030E22BFB61A754640EADC0004
:100A000055EA060E18D04FEA051545EA16754FEA65
:100A100006164FEAC30343EA52734FEAC2025FEA83
:100A20001C1CC0D111F4801F0BD141EA00014FF012
:100A300000004FF0004CB6E711F4801F04BF0143E3
:100A40000020B4F1FD0C88BFBCF5E06F3FF6AFAEFF
:100A5000B5EB030C04BFB6EB020C5FEA500C50F18F
:100A6000000041EB045170BD0EF0004E4EEA113112
:100A700014EB5C04C2BFD4EB0C0541EA045170BD19
:100A800041F480114FF0000E013C90E645EA060E5D
:100A90008DE60CEA135594EA0C0F08BF95EA0C0F8B
:100AA0003FF43BAF94EA0C0F0AD150EA01347FF4D3
:100AB00034AF95EA0C0F7FF425AF104619462CE7AA
:100AC00095EA0C0F06D152EA03353FF4FDAE10460D
:100AD000194622E750EA410618BF52EA43067FF45E
:100AE000C5AE50EA41047FF40DAF52EA43057FF4EE
:100AF000EBAE12E74FEA4102B2F1E04324BFB3F597
:100B0000001CDCF1FE5C0DD901F0004C4FEAC00284
:100B10004CEA5070B2F1004F40EB830008BF20F068
:100B20000100704711F0804F21D113F13872BCBF22
:100B300001F00040704741F480114FEA5252C2F177
:100B40001802C2F1200C10FA0CF320FA02F018BFC0
:100B500040F001004FEAC1234FEAD32303FA0CFC13
:100B600040EA0C0023FA02F34FEA4303CCE77FEAA2
:100B7000625307D150EA01331EBF4FF0FE4040F4EC
:100B80004000704701F0004040F0FE4040F400009B
:100B9000704700BF7BB972B90029BEBF00204FF07B
:100BA000004106E008BF00281CBF6FF000414FF075
:100BB000FF3000F0C5B9ADF1080C6DE904CE002995
:100BC00009DB002B1ADB00F04DF8DDF804E0DDE96D
:100BD000022304B07047404261EB4101002B1BDB54
:100BE00000F040F8DDF804E0DDE9022304B0404203
:100BF00061EB4101524263EB43037047524263EBA6
:100C0000430300F02FF8DDF804E0DDE9022304B02F
:100C1000404261EB41017047524263EB430300F0F5
:100C200021F8DDF804E0DDE9022304B0524263EB71
:100C30004303704753B94AB9002908BF00281CBFB5
:100C40004FF0FF314FF0FF3000F07AB9ADF1080CF2
:100C50006DE904CE00F006F8DDF804E0DDE90223DA
:100C600004B070472DE9F0478C460D460446089EB7
:100C7000002B51D18A4217466DD9B2FA82FEBEF1DD
:100C8000000F0BD0CEF1200C01FA0EF520FA0CFC6F
:100C900002FA0EF74CEA050C00FA0EF44FEA174A76
:100CA000250CBCFBFAF81FFA87F90AFB18CC45EAB9
:100CB0000C4508FB09F3AB420AD9ED1908F1FF32E4
:100CC00080F02381AB4240F22081A8F102083D442C
:100CD000ED1AA4B2B5FBFAF00AFB105544EA05443C
:100CE00000FB09F9A14509D9E41900F1FF3380F0AF
:100CF0000A81A14540F2078102383C44A4EB090473
:100D000040EA08400021002E61D024FA0EF40023AE
:100D100034607360BDE8F0878B4207D9002E54D051
:100D2000002186E821000846BDE8F087B3FA83F188
:100D3000002940F08E80AB4202D3824200F2FA805A
:100D4000841A65EB03050120AC46002E3FD086E8EF
:100D50001010BDE8F08712B90127B7FBF2F7B7FA18
:100D600087FEBEF1000F34D1EB1B3A0C1FFA87FC53
:100D70000121B3FBF2F8250C02FB183345EA0345C9
:100D80000CFB08F3AB4207D9ED1908F1FF3002D292
:100D9000AB4200F2D1808046ED1AA3B2B5FBF2F06F
:100DA00002FB105543EA05440CFB00FCA44507D99F
:100DB000E41900F1FF3302D2A44500F2B8801846CE
:100DC000A4EB0C0440EA08409DE731463046BDE8FC
:100DD000F087CEF1200405FA0EF307FA0EF720FA99
:100DE00004F83A0C25FA04F448EA0308B4FBF2F1DB
:100DF0004FEA184502FB11441FFA87FC45EA0445F7
:100E000001FB0CF3AB4200FA0EF409D9ED1901F124
:100E1000FF3080F08A80AB4240F2878002393D4447
:100E2000EB1A1FFA88F5B3FBF2F002FB103345EA28
:100E3000034500FB0CF3AB4207D9ED1900F1FF3875
:100E40006FD2AB426DD902383D44EB1A40EA014102
:100E50008FE7C1F1200722FA07F88B4005FA01F469
:100E600048EA030320FA07FE4FEA134CFD404EEA1E
:100E7000040EB5FBFCF94FEA1E440CFB19551FFA92
:100E800083F844EA054509FB08F4AC4202FA01F292
:100E900000FA01FA08D9ED1809F1FF3043D2AC424B
:100EA00041D9A9F102091D442D1B1FFA8EFEB5FB85
:100EB000FCF00CFB10554EEA054400FB08F8A04579
:100EC00007D9E41800F1FF3529D2A04527D9023807
:100ED0001C4440EA0940A4EB0804A0FB02894C45ED
:100EE000C6464D4615D312D056B1BAEB0E0364EB8D
:100EF000050404FA07F7CB401F43CC403760746009
:100F00000021BDE8F0871846F8E69046E0E6C245C5
:100F1000EAD2B8EB020E69EB03050138E4E7284694
:100F2000D7E7404691E78146BEE7014678E70238B9
:100F30003C4445E7084608E7A8F102083D442BE792
:100F4000704700BF80B582B000AF0023FB71032063
:100F500000F036F9002000F00DF80346002B02D017
:100F60000123FB7101E004F0B9F8FB79184608375A
:100F7000BD4680BD80B584B000AF78600023FB73B0
:100F80000C4B1B680C4AA2FB03239B09184600F07C
:100F90004CF90346002B02D00123FB7305E000222D
:100FA00079684FF0FF3000F016F9FB7B18461037D8
:100FB000BD4680BD08000020D34D621080B400AF54
:100FC000044B1B680133034A136000BFBD465DF844
:100FD000047B70479C0A002080B400AF034B1B6861
:100FE0001846BD465DF8047B704700BF9C0A002090
:100FF00080B584B000AF7860FFF7EEFFB8607B6823
:10100000FB60FB68B3F1FF3F02D0FB680133FB607C
:1010100000BFFFF7E1FF0246BB68D21AFB689A42A5
:10102000F7D300BF1037BD4680BD000080B485B047
:1010300000AF78607B6803F00703FB600C4BDB6854
:10104000BB60BA684FF6FF031340BB60FB681A022F
:10105000BB68134343F0BF6343F40033BB60044AEF
:10106000BB68D36000BF1437BD465DF8047B704792
:1010700000ED00E080B400AF044BDB681B0A03F016
:1010800007031846BD465DF8047B704700ED00E09D
:1010900080B483B000AF0346FB71094997F907306C
:1010A0005B09FA7902F01F02012000FA02F241F80E
:1010B000232000BF0C37BD465DF8047B704700BF9E
:1010C00000E100E080B483B000AF03463960FB71FB
:1010D00097F90730002B0BDA0D49FB7903F00F036A
:1010E000043B3A68D2B21201D2B20B441A7609E03C
:1010F000084997F907303A68D2B21201D2B20B44CC
:1011000083F8002300BF0C37BD465DF8047B7047B1
:1011100000ED00E000E100E080B489B000AFF860CD
:10112000B9607A60FB6803F00703FB61FB69C3F1F8
:101130000703042B28BF0423BB61FB690433062B80
:1011400002D9FB69033B00E000237B610122BB69FC
:1011500002FA03F35A1EBB681A407B699A400121C8
:101160007B6901FA03F3591E7B680B401343184651
:101170002437BD465DF8047B7047000080B582B01F
:1011800000AF78607B68013BB3F1807F01D301231E
:101190000FE00A4A7B68013B53600F214FF0FF309C
:1011A000FFF790FF054B00229A60044B07221A605C
:1011B000002318460837BD4680BD00BF10E000E0A0
:1011C00080B582B000AF78607868FFF72FFF00BF6E
:1011D0000837BD4680BD80B586B000AF0346B96014
:1011E0007A60FB7300237B61FFF744FF78617A68C4
:1011F000B9687869FFF790FF024697F90F301146FA
:101200001846FFF75FFF00BF1837BD4680BD80B5A9
:1012100082B000AF0346FB7197F907301846FFF71D
:1012200037FF00BF0837BD4680BD80B582B000AF34
:1012300078607868FFF7A2FF034618460837BD4676
:1012400080BD80B584B000AF78600023FB737B68FD
:1012500093F82530DBB2022B05D07B680422DA63D9
:101260000123FB7329E07B681B687A6812681268A7
:1012700022F00E021A607B681B687A681268126896
:1012800022F001021A607B681B6C7A68526C02F0D3
:101290001C02012101FA02F25A607B68012283F8E4
:1012A00025207B68002283F824207B689B6B002B21
:1012B00003D07B689B6B78689847FB7B1846103798
:1012C000BD4680BD80B487B000AF78603960002330
:1012D0007B6154E13B681A6801217B6901FA03F3E1
:1012E0001340FB60FB68002B00F046813B685B68A5
:1012F000022B03D03B685B68122B23D17B69DA0891
:101300007B68083253F822303B617B6903F00703A6
:101310009B000F2202FA03F3DB433A6913403B615F
:101320003B681A697B6903F007039B0002FA03F329
:101330003A6913433B617B69DA087B680832396993
:1013400043F822107B681B683B617B695B000322CA
:1013500002FA03F3DB433A6913403B613B685B6885
:1013600003F003027B695B0002FA03F33A6913435B
:101370003B617B683A691A603B685B68012B0BD064
:101380003B685B68022B07D03B685B68112B03D07E
:101390003B685B68122B30D17B689B683B617B6943
:1013A0005B00032202FA03F3DB433A6913403B611B
:1013B0003B68DA687B695B0002FA03F33A6913431E
:1013C0003B617B683A699A607B685B683B6101229C
:1013D0007B6902FA03F3DB433A6913403B613B68E4
:1013E0005B681B0903F001027B6902FA03F33A69A7
:1013F00013433B617B683A695A607B68DB683B61F9
:101400007B695B00032202FA03F3DB433A69134072
:101410003B613B689A687B695B0002FA03F33A69B7
:1014200013433B617B683A69DA603B685B6803F0B1
:101430008053002B00F0A080584A584B1B6E43F09D
:1014400001031366554B1B6E03F00103BB60BB68C1
:10145000534A7B699B08023352F823303B617B6916
:1014600003F003039B000F2202FA03F3DB433A6904
:1014700013403B617B68B3F1904F19D07B68494AB8
:10148000934213D07B68484A93420DD07B68474A09
:10149000934207D07B68464A934201D1042308E077
:1014A000072306E0032304E0022302E0012300E017
:1014B00000237A6902F00302920093403A691343D1
:1014C0003B6137497B699B0802333A6941F8232025
:1014D000384B1B683B61FB68DB433A6913403B6157
:1014E0003B685B6803F48033002B03D03A69FB68E8
:1014F00013433B612F4A3B6913602E4B5B683B6192
:10150000FB68DB433A6913403B613B685B6803F46B
:101510000033002B03D03A69FB6813433B61254A33
:101520003B695360234B9B683B61FB68DB433A6933
:1015300013403B613B685B6803F48013002B03D0CE
:101540003A69FB6813433B611A4A3B699360194B44
:10155000DB683B61FB68DB433A6913403B613B68F6
:101560005B6803F40013002B03D03A69FB68134354
:101570003B61104A3B69D3607B6901337B613B6807
:101580001A687B6922FA03F3002B7FF4A3AE00BF35
:101590001C37BD465DF8047B704700BF0010024059
:1015A000000001400004004800080048000C00480A
:1015B000001000480004014080B485B000AF78609E
:1015C0000B467B807B681A697B881340002B02D016
:1015D0000123FB7301E00023FB73FB7B18461437E8
:1015E000BD465DF8047B704780B483B000AF78607F
:1015F0000B467B8013467B707B78002B03D07A8868
:101600007B689A6102E07A887B689A6200BF0C3737
:10161000BD465DF8047B704780B400AF044B1B6887
:1016200003F4C0631846BD465DF8047B704700BFF5
:101630000070004080B485B000AF78607B68B3F57F
:10164000007F30D1234B1B6803F4C063B3F5007FE8
:1016500038D0204A1F4B1B6823F4C06343F4007347
:1016600013601D4B1B68322202FB03F31B4AA2FBD3
:1016700003239B0C0133FB6002E0FB68013BFB6032
:10168000144B5B6903F48063B3F5806F02D1FB6890
:10169000002BF2D10F4B5B6903F48063B3F5806FCD
:1016A00010D103230FE00B4B1B6803F4C063B3F5A9
:1016B000806F07D0074A074B1B6823F4C06343F4CD
:1016C00080631360002318461437BD465DF8047B21
:1016D000704700BF007000400800002083DE1B43FD
:1016E00080B588B000AF78607B68002B01D1012302
:1016F00095E3A34B9B6803F00C03BB61A04BDB6835
:1017000003F003037B617B681B6803F01003002B6D
:1017100000F0DF80BB69002B07D0BB690C2B40F0C9
:1017200086807B69012B40F08280954B1B6803F01B
:101730000203002B05D07B689B69002B01D101239C
:101740006DE37B681A6A8E4B1B6803F00803002B5D
:1017500004D08B4B1B6803F0F00305E0884BD3F8F3
:1017600094301B0903F0F0039A4223D97B681B6A6B
:10177000184600F00DFD0346002B01D001234EE377
:101780007F4A7F4B1B6843F0080313607C497C4B06
:101790001B6823F0F0027B681B6A13430B607849D7
:1017A000774B5B6823F47F427B68DB691B02134342
:1017B0004B6022E0724A724B1B6843F008031360CF
:1017C0006F496F4B1B6823F0F0027B681B6A134361
:1017D0000B606B496A4B5B6823F47F427B68DB6973
:1017E0001B0213434B607B681B6A184600F0D0FC59
:1017F0000346002B01D0012311E300F0F5FB014665
:101800005F4B9B681B0903F00F035E4AD35C03F038
:101810001F0321FA03F35C4A13600020FFF7AAFBC1
:101820000346FB73FB7B002B52D0FB7BF7E27B680C
:101830009B69002B32D0524A514B1B6843F0010385
:101840001360FFF7C9FB386108E0FFF7C5FB0246EC
:101850003B69D31A022B01D90323E0E2484B1B68F2
:1018600003F00203002BF0D0454A454B1B6843F0C0
:10187000080313604249424B1B6823F0F0027B6867
:101880001B6A13430B603E493D4B5B6823F47F4268
:101890007B68DB691B0213434B601AE0384A384B04
:1018A0001B6823F001031360FFF796FB386108E023
:1018B000FFF792FB02463B69D31A022B01D903239F
:1018C000ADE22F4B1B6803F00203002BF0D100E0C8
:1018D00000BF7B681B6803F00103002B72D0BB695B
:1018E000082B05D0BB690C2B0ED17B69032B0BD1C8
:1018F000234B1B6803F40033002B62D07B685B68CA
:10190000002B5ED101238AE27B685B68B3F5803FE0
:1019100006D11B4A1A4B1B6843F4803313601DE049
:101920007B685B68B3F5A02F0CD1154A144B1B687C
:1019300043F480231360124A114B1B6843F4803335
:1019400013600BE00E4A0E4B1B6823F480331360C8
:101950000B4A0B4B1B6823F4802313607B685B6886
:10196000002B1AD0FFF738FB38610FE0FFF734FB8C
:1019700002463B69D31A642B08D903234FE200BF08
:1019800000100240F05F010808000020AE4B1B6809
:1019900003F40033002BE9D014E0FFF71DFB38619E
:1019A00008E0FFF719FB02463B69D31A642B01D903
:1019B000032334E2A44B1B6803F40033002BF0D163
:1019C00000E000BF7B681B6803F00203002B60D0BF
:1019D000BB69042B05D0BB690C2B19D17B69022B89
:1019E00016D1994B1B6803F48063002B05D07B68EC
:1019F000DB68002B01D1012311E29349924B5B6814
:101A000023F0F8527B681B691B0613434B6040E0D0
:101A10007B68DB68002B23D08B4A8B4B1B6843F41D
:101A200080731360FFF7D8FA386108E0FFF7D4FA43
:101A300002463B69D31A022B01D90323EFE1824B03
:101A40001B6803F48063002BF0D07F497E4B5B68FA
:101A500023F0F8527B681B691B0613434B6018E0A8
:101A6000794A794B1B6823F480731360FFF7B4FA4B
:101A7000386108E0FFF7B0FA02463B69D31A022B3F
:101A800001D90323CBE1704B1B6803F48063002B67
:101A9000F0D17B681B6803F00803002B3CD07B6807
:101AA0005B69002B1CD0684A674BD3F8943043F035
:101AB0000103C2F89430FFF78FFA386108E0FFF7AE
:101AC0008BFA02463B69D31A022B01D90323A6E104
:101AD0005D4BD3F8943003F00203002BEFD01BE0F2
:101AE000594A594BD3F8943023F00103C2F894308B
:101AF000FFF772FA386108E0FFF76EFA02463B69B9
:101B0000D31A022B01D9032389E14F4BD3F8943028
:101B100003F00203002BEFD17B681B6803F0040382
:101B2000002B00F0A5800023FB77474B9B6D03F053
:101B30008053002B0DD1444A434B9B6D43F080539F
:101B40009365414B9B6D03F08053BB60BB680123E1
:101B5000FB773E4B1B6803F48073002B18D13B4A84
:101B60003A4B1B6843F480731360FFF735FA386112
:101B700008E0FFF731FA02463B69D31A022B01D97C
:101B800003234CE1314B1B6803F48073002BF0D02E
:101B90007B689B68012B08D12B4A2B4BD3F89030E4
:101BA00043F00103C2F8903024E07B689B68052B6A
:101BB00010D1254A244BD3F8903043F00403C2F8E7
:101BC0009030214A204BD3F8903043F00103C2F803
:101BD00090300FE01C4A1C4BD3F8903023F00103E7
:101BE000C2F89030184A184BD3F8903023F0040311
:101BF000C2F890307B689B68002B16D0FFF7ECF999
:101C000038610AE0FFF7E8F902463B69D31A41F26E
:101C10008832934201D9032301E10B4BD3F8903072
:101C200003F00203002BEDD019E0FFF7D5F938617E
:101C30000EE0FFF7D1F902463B69D31A41F2883230
:101C4000934205D90323EAE00010024000700040EF
:101C5000754BD3F8903003F00203002BE9D1FB7FE2
:101C6000012B05D1704A704B9B6D23F08053936517
:101C70007B681B6803F02003002B3CD07B685B6A09
:101C8000002B1CD0684A684BD3F8983043F001030E
:101C9000C2F89830FFF7A0F9386108E0FFF79CF927
:101CA00002463B69D31A022B01D90323B7E05E4BEE
:101CB000D3F8983003F00203002BEFD01BE05A4A10
:101CC000594BD3F8983023F00103C2F89830FFF74E
:101CD00083F9386108E0FFF77FF902463B69D31AC0
:101CE000022B01D903239AE04F4BD3F8983003F02D
:101CF0000203002BEFD17B689B6A002B00F08E80E3
:101D0000BB690C2B00F088807B689B6A022B55D145
:101D1000454A454B1B6823F080731360FFF75CF95D
:101D2000386108E0FFF758F902463B69D31A022BE5
:101D300001D9032373E03C4B1B6803F00073002BB5
:101D4000F0D139497B681B6B013B1A017B685B6BE7
:101D50001B021A437B68DB6A1A437B68DB6B5B08F8
:101D6000013B5B051A437B681B6C5B08013B5B0610
:101D70001A437B689B6BDB061343CB602A4A2A4BD2
:101D80001B6843F080731360274A274BDB6843F0DE
:101D90008073D360FFF720F9386108E0FFF71CF982
:101DA00002463B69D31A022B01D9032337E01E4BAD
:101DB0001B6803F00073002BF0D02FE01A4A1A4B77
:101DC0001B6823F080731360174B1B6803F00063DC
:101DD000002B05D1144A144BDB6823F00303D360B6
:101DE000114A114BDB6823F0887323F48033D360EE
:101DF000FFF7F2F8386108E0FFF7EEF802463B69BA
:101E0000D31A022B01D9032309E0074B1B6803F007
:101E10000073002BF0D101E0012300E000231846FD
:101E20002037BD4680BD00BF0010024080B584B0A1
:101E300000AF786039607B68002B01D10123C6E0D8
:101E4000654B1B6803F007023B689A4210D2624957
:101E5000614B1B6823F007023B6813430B605E4B2A
:101E60001B6803F007023B689A4201D00123AEE0F1
:101E70007B681B6803F00103002B4CD07B685B6818
:101E8000032B07D1554B1B6803F00073002B21D1A6
:101E900001239CE07B685B68022B07D14F4B1B68DA
:101EA00003F40033002B15D1012390E07B685B68BD
:101EB000002B07D1494B1B6803F00203002B09D10B
:101EC000012384E0454B1B6803F48063002B01D1A0
:101ED00001237CE04149414B9B6823F003027B686E
:101EE0005B6813438B60FFF777F8F8600AE0FFF751
:101EF00073F80246FB68D31A41F28832934201D943
:101F0000032364E0354B9B6803F00C027B685B683D
:101F10009B009A42EBD17B681B6803F00203002B05
:101F200008D02E492D4B9B6823F0F0027B689B68FC
:101F300013438B60284B1B6803F007023B689A42EF
:101F400010D92549244B1B6823F007023B68134333
:101F50000B60214B1B6803F007023B689A4201D0DB
:101F6000012334E07B681B6803F00403002B08D0D6
:101F70001A491A4B9B6823F4E0627B68DB681343C1
:101F80008B607B681B6803F00803002B09D01349A2
:101F9000124B9B6823F460527B681B69DB00134380
:101FA0008B6000F021F801460C4B9B681B0903F085
:101FB0000F030B4AD35C03F01F0321FA03F3094A12
:101FC00013600020FEF7D6FF0346FB72FB7A18462B
:101FD0001037BD4680BD00BF002002400010024007
:101FE000F05F01080800002080B489B000AF002332
:101FF000FB610023BB61464B9B6803F00C033B6114
:10200000434BDB6803F00303FB603B69002B05D007
:102010003B690C2B21D1FB68012B1ED13C4B1B686B
:1020200003F00803002B07D1394BD3F894301B0A77
:1020300003F00F03FB6105E0354B1B681B0903F040
:102040000F03FB61334AFB6952F82330FB613B69A4
:10205000002B0DD1FB69BB610AE03B69042B02D167
:102060002D4BBB6104E03B69082B01D12B4BBB61BD
:102070003B690C2B45D1264BDB6803F00303BB60A7
:10208000234BDB681B0903F0070301337B60BB684C
:10209000022B02D0032B0DD019E01F4A7B68B2FB44
:1020A000F3F31B4AD268120A02F07F0202FB03F329
:1020B0007B6119E0194A7B68B2FBF3F3144AD268DA
:1020C000120A02F07F0202FB03F37B610CE0FA6963
:1020D0007B68B2FBF3F30E4AD268120A02F07F0269
:1020E00002FB03F37B6100BF094BDB685B0E03F06F
:1020F000030301335B003B607A693B68B2FBF3F397
:10210000BB61BB6918462437BD465DF8047B704748
:1021100000100240086001080024F40000127A0058
:1021200080B400AF034B1B681846BD465DF8047BC6
:10213000704700BF0800002080B500AFFFF7F0FF38
:102140000146064B9B681B0A03F00703044AD35C55
:1021500003F01F0321FA03F3184680BD001002406C
:102160000060010880B500AFFFF7DAFF0146064BBB
:102170009B68DB0A03F00703044AD35C03F01F03E8
:1021800021FA03F3184680BD0010024000600108E8
:1021900080B586B000AF786000233B612A4B9B6D11
:1021A00003F08053002B03D0FFF736FA786114E078
:1021B000254A254B9B6D43F080539365224B9B6DC5
:1021C00003F08053FB60FB68FFF726FA78611E4A34
:1021D0001D4B9B6D23F0805393657B69B3F5007FA6
:1021E0000BD17B68802B19D97B68A02B02D90223E5
:1021F0003B6113E001233B6110E07B68802B02D937
:1022000003233B610AE07B68802B02D102233B6100
:1022100004E07B68702B01D101233B610B490B4B20
:102220001B6823F007023B6913430B60074B1B68D5
:1022300003F007023B699A4201D0012300E000232A
:1022400018461837BD4680BD0010024000200240ED
:1022500080B586B000AF78600023FB740023BB74A8
:102260007B681B6803F40063002B2FD07B685B6CDA
:10227000B3F5000F05D0B3F5400F15D0002B07D0F4
:102280000FE05D4A5C4BDB6843F48033D3600CE0C5
:102290007B6804330021184600F0F0F90346FB7414
:1022A00003E00123FB7400E000BFFB7C002B0BD19B
:1022B0005149514BD3F8883023F440027B685B6C62
:1022C0001343C1F8883001E0FB7CBB747B681B685A
:1022D00003F40033002B00F09E8000237B74464BF8
:1022E0009B6D03F08053002B01D1012300E00023FC
:1022F000002B0DD0404A404B9B6D43F080539365BB
:102300003D4B9B6D03F08053BB60BB6801237B7426
:102310003A4A3A4B1B6843F480731360FEF75CFE45
:10232000F86009E0FEF758FE0246FB68D31A022B5C
:1023300002D90323FB7405E0304B1B6803F4807360
:10234000002BEFD0FB7C002B5AD12B4BD3F89030D5
:1023500003F440737B617B69002B1ED07B689A6D10
:102360007B699A4219D0244BD3F8903023F4407300
:102370007B61214A204BD3F8903043F48033C2F87C
:1023800090301D4A1C4BD3F8903023F48033C2F8B0
:102390009030194A7B69C2F890307B6903F00103E1
:1023A000002B16D0FEF718FEF8600BE0FEF714FEC7
:1023B0000246FB68D31A41F28832934202D90323C2
:1023C000FB7406E00C4BD3F8903003F00203002BB3
:1023D000ECD0FB7C002B0BD10749074BD3F8903096
:1023E00023F440727B689B6D1343C1F8903009E081
:1023F000FB7CBB7406E000BF001002400070004090
:10240000FB7CBB747B7C012B05D19B4A9A4B9B6D5B
:1024100023F0805393657B681B6803F00103002B56
:102420000AD09549944BD3F8883023F003027B6897
:102430001B6A1343C1F888307B681B6803F00203F2
:10244000002B0AD08C498C4BD3F8883023F00C0237
:102450007B685B6A1343C1F888307B681B6803F0B4
:102460000403002B0AD08449834BD3F8883023F02F
:1024700030027B689B6A1343C1F888307B681B6815
:1024800003F02003002B0AD07B497B4BD3F8883024
:1024900023F440627B68DB6A1343C1F888307B68B1
:1024A0001B6803F40073002B0AD07349724BD3F8F6
:1024B000883023F440227B68DB6B1343C1F88830FB
:1024C0007B681B6803F48063002B0AD06A496A4B5F
:1024D000D3F8883023F440127B681B6C1343C1F897
:1024E00088307B681B6803F04003002B0AD06249E8
:1024F000614BD3F8883023F440527B681B6B134345
:10250000C1F888307B681B6803F08003002B0AD079
:102510005949594BD3F8883023F440427B685B6BB0
:102520001343C1F888307B681B6803F48073002B69
:102530000AD05149504BD3F8883023F440327B689D
:102540009B6B1343C1F888307B681B6803F400233E
:10255000002B28D04849484BD3F8883023F04062FC
:102560007B689B6C1343C1F888307B689B6CB3F12C
:10257000006F06D1404A404BDB6843F48013D360C0
:1025800011E07B689B6CB3F1806F0CD17B680433E6
:102590000121184600F072F80346FB74FB7C002B07
:1025A00001D0FB7CBB747B681B6803F48023002B89
:1025B00028D03149304BD3F8883023F040627B6813
:1025C000DB6C1343C1F888307B68DB6CB3F1006FC0
:1025D00006D1294A284BDB6843F48013D36011E00D
:1025E0007B68DB6CB3F1806F0CD17B680433012115
:1025F000184600F043F80346FB74FB7C002B01D027
:10260000FB7CBB747B681B6803F48043002B1CD0ED
:102610001949194BD3F8883023F040527B681B6D61
:102620001343C1F888307B681B6DB3F1805F0CD118
:102630007B6804330221184600F020F80346FB743F
:10264000FB7C002B01D0FB7CBB747B681B6803F414
:102650000043002B0AD00849074BD3F8883023F0F9
:1026600080427B685B6D1343C1F88830BB7C1846A1
:102670001837BD4680BD00BF0010024080B584B051
:1026800000AF786039600023FB73734BDB6803F0A5
:102690000303002B18D0704BDB6803F003027B6848
:1026A0001B689A420DD17B681B68002B09D06A4BCE
:1026B000DB681B0903F007035A1C7B685B689A42BE
:1026C00044D00123FB7341E07B681B68022B0CD0D4
:1026D000032B13D0012B20D15F4B1B6803F00203A7
:1026E000002B1DD10123FB731AE05B4B1B6803F425
:1026F0008063002B16D10123FB7313E0564B1B683C
:1027000003F40033002B0FD1534B1B6803F48023D9
:10271000002B09D10123FB7306E00123FB7304E0C6
:1027200000BF02E000BF00E000BFFB7B002B0DD12B
:102730004948494BDB6823F073027B6819687B6862
:102740005B68013B1B010B431343C360FB7B002B06
:102750007CD1414A404B1B6823F080631360FEF735
:102760003BFCB86009E0FEF737FC0246BB68D31AB1
:10277000022B02D90323FB7305E0374B1B6803F0E0
:102780000063002BEFD1FB7B002B5FD13B68002B5C
:1027900010D13148304B1B6923F0784323F4FE43BA
:1027A0007A68926811027A68D268D2060A431343A3
:1027B000036127E03B68012B12D12748264B1B6998
:1027C00023F4C00323F4FE437A68926811027A6806
:1027D00012695208013A52050A431343036111E09A
:1027E0001D481D4B1B6923F0C06323F4FE437A6828
:1027F000926811027A6852695208013A52060A43F5
:1028000013430361144A144B1B6843F08063136045
:10281000FEF7E2FBB86009E0FEF7DEFB0246BB68AC
:10282000D31A022B02D90323FB7305E00A4B1B6862
:1028300003F00063002BEFD0FB7B002B06D1064991
:10284000054B1A697B689B6913430B61FB7B184638
:102850001037BD4680BD00BF0010024080B584B077
:1028600000AF78607B68002B01D101237AE07B68A0
:1028700000229A627B6893F85D30DBB2002B06D1B0
:102880007B68002283F85C20786802F0F7FB7B68A5
:10289000022283F85D207B681B687A6812681268E0
:1028A00022F040021A607B68DB68B3F5E06F02D962
:1028B0000023FB6002E04FF48053FB607B68DB6821
:1028C000B3F5706F07D07B68DB68B3F5E06F02D0BB
:1028D0007B6800229A627B681B6B002B0BD17B68A4
:1028E000DB68B3F5E06F03D97B6802221A6302E06C
:1028F0007B6801221A637B681B687A6851687A6872
:10290000926811437A68126911437A6852691143D7
:102910007A68926902F4007211437A68D2691143AD
:102920007A68126A11437A68926A0A431A607B686D
:102930001B687A689269120C02F004017A68526A84
:1029400011437A68526B11437A68D2681143FA686E
:102950000A435A607B6800221A667B68012283F86A
:102960005D20002318461037BD4680BD80B58AB073
:1029700000AFF860B9607A607B8001237B6200233E
:1029800087F82330FB6893F85C30012B01D10223D8
:10299000F8E1FB68012283F85C20FEF71DFBF8617B
:1029A000FB6893F85D30FB76FB685B687B617B8836
:1029B0007B827B883B82FB7E012B0ED07B69B3F54B
:1029C000827F06D1FB689B68002B02D1FB7E042B23
:1029D00003D0022387F82330CAE1BB68002B05D05F
:1029E0007B68002B02D07B88002B03D1012387F862
:1029F0002330BDE1FB6893F85D30DBB2042B03D0DC
:102A0000FB68052283F85D20FB6800221A66FB68DC
:102A10007A681A64FB687A88A3F84620FB687A888B
:102A2000A3F84420FB68BA689A63FB687A88DA875F
:102A3000FB687A889A87FB680022DA64FB680022C8
:102A40001A65FB68DB68B3F5E06F02D83B8A012B9F
:102A500008D9FB681B68FA681268526822F4805231
:102A60005A6007E0FB681B68FA681268526842F413
:102A700080525A60FB681B681B6803F04003402BC0
:102A800007D0FB681B68FA681268126842F04002BF
:102A90001A60FB68DB68B3F5E06F7CD9FB685B68A4
:102AA000002B02D07B8A012B69D1FB681B68FA6876
:102AB000926B1288DA60FB689B6B9A1CFB689A63C6
:102AC000FB68DB8F9BB2013B9AB2FB68DA8756E06A
:102AD000FB681B689B6803F00203022B1BD1FB6899
:102AE000DB8F9BB2002B16D07B6A012B13D1FB68C6
:102AF0001B68FA68926B1288DA60FB689B6B9A1C01
:102B0000FB689A63FB68DB8F9BB2013B9AB2FB6860
:102B1000DA8700237B62FB681B689B6803F0010374
:102B2000012B1CD1FB68B3F846309BB2002B16D0AA
:102B3000FB681B6CFA681268D26892B21A80FB6854
:102B40001B6C9A1CFB681A64FB68B3F846309BB296
:102B5000013B9AB2FB68A3F8462001237B62FEF793
:102B60003BFA0246FB69D21A3B6B9A4207D33B6B96
:102B7000B3F1FF3F03D0032387F82330F8E0FB686D
:102B8000DB8F9BB2002BA3D1FB68B3F846309BB21E
:102B9000002B9DD1DEE0FB685B68002B03D07B8AB5
:102BA000012B40F0CA80FB68DB8F9BB2012B12D94E
:102BB000FB681B68FA68926B1288DA60FB689B6B93
:102BC0009A1CFB689A63FB68DB8F9BB2023B9AB24C
:102BD000FB68DA87B1E0FB681B680C33FA68926B1C
:102BE00012781A70FB689B6B5A1CFB689A63FB682F
:102BF000DB8F9BB2013B9AB2FB68DA879DE0FB68F2
:102C00001B689B6803F00203022B34D1FB68DB8F47
:102C10009BB2002B2FD07B6A012B2CD1FB68DB8F62
:102C20009BB2012B12D9FB681B68FA68926B128861
:102C3000DA60FB689B6B9A1CFB689A63FB68DB8F0E
:102C40009BB2023B9AB2FB68DA8712E0FB681B6812
:102C50000C33FA68926B12781A70FB689B6B5A1CE3
:102C6000FB689A63FB68DB8F9BB2013B9AB2FB68FF
:102C7000DA8700237B62FB681B689B6803F0010313
:102C8000012B47D1FB68B3F846309BB2002B41D0F3
:102C9000FB68B3F846309BB2012B23D9FB681B6C51
:102CA000FA681268D26892B21A80FB681B6C9A1C90
:102CB000FB681A64FB68B3F846309BB2023B9AB2D9
:102CC000FB68A3F84620FB68B3F846309BB2012BA3
:102CD0001ED8FB681B68FA681268526842F480527A
:102CE0005A6015E0FB681B6CFA6812680C321278A7
:102CF000D2B21A70FB681B6C5A1CFB681A64FB6822
:102D0000B3F846309BB2013B9AB2FB68A3F8462069
:102D100001237B62FEF760F90246FB69D21A3B6B26
:102D20009A4203D33B6BB3F1FF3F02D13B6B002BC5
:102D300003D1032387F823301AE0FB68DB8F9BB2B3
:102D4000002B7FF45CAFFB68B3F846309BB2002BDE
:102D50007FF455AFFA69396BF86800F0EEF8034676
:102D6000002B05D0012387F82330FB6820221A6648
:102D7000FB68012283F85D20FB68002283F85C2059
:102D800097F8233018462837BD4680BD80B584B0FB
:102D900000AFF860B9603B601346FB714CE03B68E4
:102DA000B3F1FF3F48D0FEF717F90246BB69D21ACC
:102DB0003B689A4202D23B68002B3DD1FB681B68FE
:102DC000FA681268526822F0E0025A60FB685B6899
:102DD000B3F5827F11D1FB689B68B3F5004F04D037
:102DE000FB689B68B3F5806F07D1FB681B68FA68C6
:102DF0001268126822F040021A60FB689B6AB3F501
:102E0000005F0FD1FB681B68FA681268126822F431
:102E100000521A60FB681B68FA681268126842F474
:102E200000521A60FB68012283F85D20FB680022D3
:102E300083F85C2003230FE0FB681B689A68BB687B
:102E40001A40BB689A420CBF01230023DBB21A462A
:102E5000FB799A42A3D1002318461037BD4680BDA6
:102E600080B584B000AFF860B9607A603B6057E02D
:102E7000BB68B3F5C06F06D17B68002B03D1FB683C
:102E80001B680C331B783B68B3F1FF3F48D0FEF75B
:102E9000A3F80246BB69D21A3B689A4202D23B6849
:102EA000002B3DD1FB681B68FA681268526822F05B
:102EB000E0025A60FB685B68B3F5827F11D1FB6862
:102EC0009B68B3F5004F04D0FB689B68B3F5806F37
:102ED00007D1FB681B68FA681268126822F040028A
:102EE0001A60FB689B6AB3F5005F0FD1FB681B6833
:102EF000FA681268126822F400521A60FB681B68B4
:102F0000FA681268126842F400521A60FB680122E3
:102F100083F85D20FB68002283F85C20032308E02F
:102F2000FB681B689A68BB681A407B689A429FD10D
:102F3000002318461037BD4680BD80B586B002AF6D
:102F4000F860B9607A607B680093BB6800224FF438
:102F5000C051F868FFF784FF0346002B07D0FB68D9
:102F60001B6E43F02002FB681A66032327E07B6890
:102F70000093BB6800228021F868FFF707FF034633
:102F8000002B07D0FB681B6E43F02002FB681A661B
:102F9000032314E07B680093BB6800224FF4C061F8
:102FA000F868FFF75DFF0346002B07D0FB681B6E38
:102FB00043F02002FB681A66032300E00023184652
:102FC0001037BD4680BD80B582B000AF78607B68A9
:102FD000002B01D1012343E07B6893F87130DBB211
:102FE000002B06D17B68002283F87020786802F0FD
:102FF00061F97B68242283F871207B681B687A68FA
:103000001268126822F001021A60786800F07CFBF6
:103010000346012B01D1012322E07B685B6A002B70
:1030200002D0786800F058FE7B681B687A681268E6
:10303000526822F490425A607B681B687A68126872
:10304000926822F02A029A607B681B687A6812688C
:10305000126842F001021A60786800F0DFFE034651
:1030600018460837BD4680BD80B588B002AFF8600D
:10307000B9603B601346FB8000237B61FB6893F8DB
:103080007130DBB2202B77D1BB68002B02D0FB88DC
:10309000002B01D1012370E0FB6893F87030012B05
:1030A00001D1022369E0FB68012283F87020FB68EC
:1030B00000225A67FB68212283F87120FDF78CFFFC
:1030C0007861FB68FA88A3F85020FB68FA88A3F8B7
:1030D000522034E03B6800937B6900228021F8682D
:1030E00000F0E5FE0346002B01D0032345E0FB681A
:1030F0009B68B3F5805F11D1FB681B69002B0DD174
:10310000BB683B61FB681B683A691288C2F308021E
:1031100092B21A85BB680233BB6007E0FB681A688D
:10312000BB68591CB9601B789BB21385FB68B3F868
:1031300052309BB2013B9AB2FB68A3F85220FB6865
:10314000B3F852309BB2002BC4D13B6800937B692B
:1031500000224021F86800F0AAFE0346002B01D0AF
:1031600003230AE0FB68202283F87120FB68002219
:1031700083F87020002300E0022318461837BD466C
:1031800080BD80B58AB002AFF860B9603B6013467D
:10319000FB800023FB61FB6893F87230DBB2202BCD
:1031A00040F0AD80BB68002B02D0FB88002B01D122
:1031B0000123A5E0FB6893F87030012B01D10223B5
:1031C0009EE0FB68012283F87020FB6800225A67AA
:1031D000FB68222283F87220FDF7FEFEF861FB688F
:1031E000FA88A3F85820FB68FA88A3F85A20FB68ED
:1031F0009B68B3F5805F0ED1FB681B69002B05D17E
:10320000FB6840F2FF12A3F85C2028E0FB68FF2275
:10321000A3F85C2023E0FB689B68002B0DD1FB68C2
:103220001B69002B04D1FB68FF22A3F85C2016E089
:10323000FB687F22A3F85C2011E0FB689B68B3F178
:10324000805F0CD1FB681B69002B04D1FB687F22D7
:10325000A3F85C2003E0FB683F22A3F85C20FB6836
:10326000B3F85C307B833AE03B680093FB69002253
:103270002021F86800F01BFE0346002B01D0032339
:103280003EE0FB689B68B3F5805F12D1FB681B6969
:10329000002B0ED1BB687B61FB681B689B8C9AB2CC
:1032A0007B8B13409AB27B691A80BB680233BB6088
:1032B0000CE0BB685A1CBA60FA681268928C92B231
:1032C000D1B27A8BD2B20A40D2B21A70FB68B3F88C
:1032D0005A309BB2013B9AB2FB68A3F85A20FB68B4
:1032E000B3F85A309BB2002BBED1FB68202283F882
:1032F0007220FB68002283F87020002300E0022384
:1033000018462037BD4680BD80B485B000AFF86058
:10331000B9601346FB80FB6893F87230DBB2202B58
:1033200040F08680BB68002B02D0FB88002B01D1C7
:1033300001237EE0FB6893F87030012B01D102235A
:1033400077E0FB68012283F87020FB68BA685A6551
:10335000FB68FA88A3F85820FB68FA88A3F85A207B
:10336000FB6800221A66FB689B68B3F5805F0ED18C
:10337000FB681B69002B05D1FB6840F2FF12A3F824
:103380005C2028E0FB68FF22A3F85C2023E0FB68B8
:103390009B68002B0DD1FB681B69002B04D1FB68D7
:1033A000FF22A3F85C2016E0FB687F22A3F85C20D4
:1033B00011E0FB689B68B3F1805F0CD1FB681B696F
:1033C000002B04D1FB687F22A3F85C2003E0FB689C
:1033D0003F22A3F85C20FB6800225A67FB68222288
:1033E00083F87220FB681B68FA681268926842F0E2
:1033F00001029A60FB689B68B3F5805F07D1FB68A8
:103400001B69002B03D1FB680D4A1A6602E0FB68BA
:103410000C4A1A66FB68002283F87020FB681B6860
:10342000FA681268126842F490721A60002300E091
:10343000022318461437BD465DF8047B704700BF71
:103440008B400008E53F000880B586B000AF78608B
:103450007B681B68DB697B617B681B681B683B6161
:103460007B681B689B68FB607B6903F00F03BB6094
:10347000BB68002B13D17B6903F02003002B0ED017
:103480003B6903F02003002B09D07B681B6E002BE7
:1034900000F0FD807B681B6E78689847F7E0BB689A
:1034A000002B00F0BF80FB6803F00103002B05D167
:1034B0003B6903F49073002B00F0B4807B6903F048
:1034C0000103002B0ED03B6903F48073002B09D05D
:1034D0007B681B6801221A627B685B6F43F0010204
:1034E0007B685A677B6903F00203002B0ED0FB68F0
:1034F00003F00103002B09D07B681B6802221A62CB
:103500007B685B6F43F004027B685A677B6903F05A
:103510000403002B0ED0FB6803F00103002B09D03D
:103520007B681B6804221A627B685B6F43F00202AF
:103530007B685A677B6903F00803002B13D03B6953
:1035400003F02003002B04D1FB6803F00103002BE0
:1035500009D07B681B6808221A627B685B6F43F0A6
:1035600008027B685A677B685B6F002B00F09180D4
:103570007B6903F02003002B0CD03B6903F0200390
:10358000002B07D07B681B6E002B03D07B681B6E63
:10359000786898477B685B6F03F00803002B06D1BF
:1035A0007B681B689B6803F04003402B31D178682F
:1035B00000F0C7FC7B681B689B6803F04003402B4E
:1035C00023D17B681B687A681268926822F04002F7
:1035D0009A607B68DB6E002B13D07B68DB6E304A11
:1035E0009A637B68DB6E1846FDF72BFE0346002BC3
:1035F00016D07B68DB6E9B6B7A68D26E104698475C
:103600000EE0786800F058F80AE0786800F054F8A6
:1036100006E0786800F050F87B6800225A6738E0CE
:1036200000BF36E07B6903F48013002B0DD0FB68EC
:1036300003F48003002B08D07B681B684FF48012D2
:103640001A62786800F076FD26E07B6903F080035B
:10365000002B0DD03B6903F08003002B08D07B6862
:103660005B6E002B17D07B685B6E7868984712E022
:103670007B6903F04003002B0ED03B6903F040034D
:10368000002B09D0786800F093FC00BF04E000BF75
:1036900002E000BF00E000BF1837BD4680BD00BF9C
:1036A000853F000880B483B000AF786000BF0C375E
:1036B000BD465DF8047B704780B483B000AF78608E
:1036C00000BF0C37BD465DF8047B704780B485B001
:1036D00000AF78600023FB600023BB607B6893F839
:1036E0007130DBB2FB607B6893F87230DBB2BB6099
:1036F000FB68DAB2BB68DBB21343DBB2184614379F
:10370000BD465DF8047B70472DE9B04388B000AF3B
:1037100078600023FB611023FB7600237B8100236C
:103720007B610023FB740023FB607B689A687B68E5
:103730001B691A437B685B691A437B68DB69134327
:10374000FB617B681A687B681B681968B74B0B4084
:10375000F9690B4313607B681B687A6812685268CA
:1037600022F440517A68D2680A435A607B689B69A8
:10377000FB617B681B68AE4A934204D07B681B6A7E
:10378000FA691343FB617B681B687A681268926868
:1037900022F43061FA690A439A607B681B68A54A83
:1037A000934221D1A44BD3F8883003F00303032BB9
:1037B00016D801A252F823F0C9370008D5370008FF
:1037C000CF370008DB3700080123FB7694E00223A3
:1037D000FB7691E00423FB768EE00823FB768BE0FA
:1037E0001023FB7600BF87E07B681B68934A9342F7
:1037F00034D1914BD3F8883003F00C030C2B29D82B
:1038000001A252F823F000BF3D38000855380008E7
:103810005538000855380008493800085538000860
:103820005538000855380008433800085538000856
:1038300055380008553800084F3800080023FB763B
:103840005AE00223FB7657E00423FB7654E008237A
:10385000FB7651E01023FB7600BF4DE07B681B68D0
:10386000774A934220D1744BD3F8883003F0300369
:10387000102B0FD0102B02D8002B05D010E0202BDE
:1038800005D0302B09D00BE00023FB7634E0022377
:10389000FB7631E00423FB762EE00823FB762BE059
:1038A0001023FB7600BF27E07B681B68604A9342C9
:1038B00023D1614BD3F8883003F44063B3F5806FB4
:1038C00012D0B3F5806F02D8002B07D012E0B3F509
:1038D000006F06D0B3F5406F09D00BE00023FB76F4
:1038E0000AE00223FB7607E00423FB7604E00823CA
:1038F000FB7601E01023FB7600BF7B681B684C4A17
:10390000934240F0EA80FB7E082B24D801A252F8B3
:1039100023F000BF39390008573900084139000841
:103920005739000847390008573900085739000847
:10393000573900084F390008FEF7FEFBF8600DE02C
:10394000404BFB600AE0FEF74FFBF86006E04FF4E7
:103950000043FB6002E00123FB7400BFFB68002B07
:1039600000F0AD817B685A6813465B001A44FB681F
:103970009A4205D87B685B681A03FB689A4202D2B8
:103980000123FB749BE1FB7E082B00F2938001A2D4
:1039900052F823F0B9390008B53A0008F93900089F
:1039A000B53A00084D3A0008B53A0008B53A0008A3
:1039B000B53A00088B3A0008FEF7BEFB03464FF00D
:1039C00000044FEA042949EA13694FEA03287B6897
:1039D0005B685B084FF0000418EB030049EB04013F
:1039E0007B685B684FF000041A462346FDF722F916
:1039F00003460C467B6160E07B685B685B084FF0C8
:103A0000000411494FF0000213EB010844EB0209D6
:103A1000404649467B685B684FF000041A462346DF
:103A2000FDF708F903460C467B6146E0F369FFEFBA
:103A30000080004000380140001002400044004077
:103A4000004800400024F400000024F4FEF7CCFA03
:103A500003461A464FF000031D0245EA12651402A0
:103A60007B685B685B081A464FF00003A01845EBC3
:103A700003017B685B684FF000041A462346FDF79C
:103A8000D9F803460C467B6117E07B685B685B08EE
:103A90004FF0000413F5000044F100017B685B68FF
:103AA0004FF000041A462346FDF7C4F803460C46BF
:103AB0007B6102E00123FB7400BF7B69B3F5407FAB
:103AC00008D37B69B3F5801F04D27B681B687A69D1
:103AD000DA60F4E00123FB74F1E07B68DB69B3F5A5
:103AE000004F7ED1FB7E082B5BD801A252F823F059
:103AF000153B0008333B0008513B0008A33B00087E
:103B00006D3B0008A33B0008A33B0008A33B000853
:103B10008B3B0008FEF710FB03465A007B685B688E
:103B20005B081A447B685B68B2FBF3F39BB27B6172
:103B30003AE0FEF717FB03465A007B685B685B08B8
:103B40001A447B685B68B2FBF3F39BB27B612BE0AA
:103B50007B685B685B0803F1F47303F590437A6854
:103B60005268B3FBF2F39BB27B611DE0FEF73CFAB7
:103B700003465A007B685B685B081A447B685B6895
:103B8000B2FBF3F39BB27B610EE07B685B685B0882
:103B900003F580327B685B68B2FBF3F39BB27B6119
:103BA00002E00123FB7400BF7B690F2B16D97B69F0
:103BB000B3F5803F12D27B699BB223F00F037B8168
:103BC0007B695B089BB203F007039AB27B891343BE
:103BD0007B817B681B687A89DA6070E00123FB7463
:103BE0006DE0FB7E082B59D801A252F823F000BFEC
:103BF000153C0008313C00084D3C00089D3C000885
:103C0000693C00089D3C00089D3C00089D3C000864
:103C1000853C0008FEF790FA02467B685B685B080B
:103C20001A447B685B68B2FBF3F39BB27B6138E0BC
:103C3000FEF798FA02467B685B685B081A447B686B
:103C40005B68B2FBF3F39BB27B612AE07B685B6845
:103C50005B0803F5740303F510537A685268B3FBED
:103C6000F2F39BB27B611CE0FEF7BEF902467B6873
:103C70005B685B081A447B685B68B2FBF3F39BB23A
:103C80007B610EE07B685B685B0803F500427B6844
:103C90005B68B2FBF3F39BB27B6102E00123FB7430
:103CA00000BF7B690F2B08D97B69B3F5803F04D235
:103CB0007B681B687A69DA6001E00123FB747B682A
:103CC00000221A667B6800225A66FB7C1846203761
:103CD000BD46BDE8B08300BF80B483B000AF78605C
:103CE0007B685B6A03F00103002B0AD07B681B68CA
:103CF0007A681268526822F400317A68926A0A433C
:103D00005A607B685B6A03F00203002B0AD07B6871
:103D10001B687A681268526822F480317A68D26A25
:103D20000A435A607B685B6A03F00403002B0AD0E5
:103D30007B681B687A681268526822F480217A686E
:103D4000126B0A435A607B685B6A03F00803002B1E
:103D50000AD07B681B687A681268526822F40041B6
:103D60007A68526B0A435A607B685B6A03F01003FF
:103D7000002B0AD07B681B687A681268926822F46C
:103D800080517A68926B0A439A607B685B6A03F0A1
:103D90002003002B0AD07B681B687A68126892683F
:103DA00022F400517A68D26B0A439A607B685B6A9E
:103DB00003F04003002B1AD07B681B687A681268F6
:103DC000526822F480117A68126C0A435A607B6848
:103DD0001B6CB3F5801F0AD17B681B687A68126878
:103DE000526822F4C0017A68526C0A435A607B68B8
:103DF0005B6A03F08003002B0AD07B681B687A683B
:103E00001268526822F400217A68926C0A435A6060
:103E100000BF0C37BD465DF8047B704780B586B0A7
:103E200002AF78600023FB607B6800225A67FDF7D1
:103E3000D3F8F8607B681B681B6803F00803082B45
:103E40000ED16FF07E430093FB6800224FF4001107
:103E5000786800F02CF80346002B01D0032322E001
:103E60007B681B681B6803F00403042B0ED16FF002
:103E70007E430093FB6800224FF48001786800F0D5
:103E800016F80346002B01D003230CE07B682022A8
:103E900083F871207B68202283F872207B680022DF
:103EA00083F87020002318461037BD4680BD80B5CA
:103EB00084B000AFF860B9603B601346FB712CE042
:103EC000BB69B3F1FF3F28D0BB69002B07D0FDF7DA
:103ED00083F802463B68D21ABB699A421DD9FB6837
:103EE0001B68FA681268126822F4D0721A60FB68C4
:103EF0001B68FA681268926822F001029A60FB68F7
:103F0000202283F87120FB68202283F87220FB684E
:103F1000002283F8702003230FE0FB681B68DA6936
:103F2000BB681A40BB689A420CBF01230023DBB276
:103F30001A46FB799A42C3D0002318461037BD4673
:103F400080BD80B483B000AF78607B681B687A68FE
:103F50001268126822F490721A607B681B687A6893
:103F60001268926822F001029A607B68202283F82E
:103F700072207B6800221A6600BF0C37BD465DF8D0
:103F8000047B704780B584B000AF78607B689B6A23
:103F9000FB60FB680022A3F85A20FB680022A3F80C
:103FA0005220F868FFF788FB00BF1037BD4680BD80
:103FB00080B582B000AF78607B681B687A68126851
:103FC000126822F040021A607B68202283F8712078
:103FD0007B6800225A667868FFF764FB00BF0837E9
:103FE000BD4680BD80B584B000AF78607B68B3F813
:103FF0005C30FB817B6893F87230DBB2222B36D1C8
:104000007B681B689B8CBB817B685B6D591C7A68E5
:104010005165BA89D1B2FA89D2B20A40D2B21A70C5
:104020007B68B3F85A309BB2013B9BB27A68194661
:10403000A2F85A10002B24D17B681B687A6812689A
:10404000126822F490721A607B681B687A681268A2
:10405000926822F001029A607B68202283F8722025
:104060007B6800221A66786801F0D0F909E07B6865
:104070001B687A681268128B92B242F0080292B200
:104080001A8300BF1037BD4680BD80B584B000AF35
:1040900078607B68B3F85C30FB817B6893F87230A2
:1040A000DBB2222B38D17B681B689B8CBB817B6881
:1040B0005B6DBB60BA89FB8913409AB2BB681A80FA
:1040C0007B685B6D9A1C7B685A657B68B3F85A30D5
:1040D0009BB2013B9BB27A681946A2F85A10002B9A
:1040E00024D17B681B687A681268126822F4907287
:1040F0001A607B681B687A681268926822F0010275
:104100009A607B68202283F872207B6800221A66FE
:10411000786801F07BF909E07B681B687A681268AF
:10412000128B92B242F0080292B21A8300BF10378B
:10413000BD4680BD80B483B000AF786000BF0C374F
:10414000BD465DF8047B704780B400AFBFF34F8F6E
:104150000549054BDB6803F4E062044B1343CB6075
:10416000BFF34F8F00BFFDE700ED00E00400FA054C
:1041700080B584B000AF78600023FB7302E0FB7B66
:104180000133FB73FB7B7A6813441B78002BF6D159
:10419000FB7B9AB24FF47A7379680348FEF764FFA9
:1041A00000BF1037BD4680BD7C0B002080B485B0B9
:1041B00000AF03460A46FB711346BB71BB79013B56
:1041C000032B00F2818001A252F823F0DD410008A8
:1041D000EB410008134200085F420008FB793E4AA9
:1041E000D35C9BB2303BFB816FE0FB793A4AD35CF6
:1041F000303B9BB21A46920013445B009AB2FB79A3
:1042000001333549CB5C9BB213449BB2303BFB81FD
:104210005BE0FB79304AD35C303B9BB21A4692009C
:1042200013441A4691001A460B4613449B009AB257
:10423000FB7901332849CB5C303B9BB2194689009E
:104240000B445B009BB213449AB2FB7902332249C0
:10425000CB5C9BB213449BB2303BFB8135E0FB79D6
:104260001D4AD35C303B9BB21A465201D21A9200CF
:104270001344DB009AB2FB7901331749CB5C303B26
:104280009BB2194689000B4419468800194603461B
:104290000B449B009BB213449AB2FB7902330E4944
:1042A000CB5C303B9BB2194689000B445B009BB250
:1042B00013449AB2FB7903330749CB5C9BB2134496
:1042C0009BB2303BFB8100E000BFFB8918461437EE
:1042D000BD465DF8047B7047F80B002080B582B0C6
:1042E00000AF0D22854986480AF026FF0346002BC1
:1042F00027D1844B1B78002B23D1814B9B7B322B06
:104300000AD0332B0FD0312B14D17E4B01221A70DF
:104310007D48FFF72DFF14E07A4B02221A707B488C
:10432000FFF726FF0DE0774B03221A707848FFF75E
:104330001FFF06E0734B00221A707648FFF718FF44
:1043400000BF704B1B78002B00F0D4800B22724909
:104350006B480AF0F1FE0346002B0ED16F4B002292
:104360001A70684B00221A706D4B00221A706D484B
:10437000FFF7FEFEFFF7E8FEBCE00023FB71B5E0AF
:10438000FB795F4AD35C732B35D1FB795C4A1344CC
:104390000622654918460AF0CFFE0346002B2AD1B3
:1043A000FB790633BB7121E0BB79554AD35C2C2BDA
:1043B00019D1FB7906337B71BA797B79D31ADBB2D9
:1043C000023B3B713A797B7911461846FFF7EEFEC6
:1043D00003461A46554B1A80514B1B780133DAB20B
:1043E0004F4B1A7007E0BB790133BB71BA79FB7987
:1043F00019339A42D8DBFB79414AD35C6C2B35D117
:10440000FB793F4A13440722494918460AF094FEB3
:104410000346002B2AD1FB790733BB7121E0BB791E
:10442000374AD35C2C2B19D1FB7907337B71BA79CE
:104430007B79D31ADBB2023B3B713A797B79114627
:104440001846FFF7B3FE03461A463A4B1A80344B20
:104450001B780133DAB2324B1A7007E0BB790133B3
:10446000BB71BA79FB7919339A42D8DBFB79244ABC
:10447000D35C622B37D1234B1B78012B33D1FB79D3
:104480001F4A134404222C4918460AF055FE0346DD
:10449000002B28D1FB790433BB711FE0BB79184A8C
:1044A000D35C2C2B17D1FB7904337B71BA797B79E0
:1044B000D31A3B713A797B7911461846FFF776FE9D
:1044C00003461A461D4B1A80154B1B780133DAB28E
:1044D000134B1A7007E0BB790133BB71BA79FB79D2
:1044E00019339A42DADBFB790133FB71FB79312B0B
:1044F0007FF646AF0837BD4680BD00BFFC170108F8
:10450000F80B0020500100200C1801081C180108AD
:104510002C1801083C18010860180108060000204A
:10452000510100206C1801087818010800000020D3
:1045300080180108020000208818010804000020EB
:1045400080B582B000AF78607B68054AA2FB032388
:104550009B091846FCF74CFD00BF0837BD4680BDDF
:10456000D34D621080B586B002AFF860B9607A6052
:10457000002240210B48FDF737F87B689AB241F2E0
:10458000883300931346BA68B9680748FEF7EEF916
:10459000012240210348FDF727F800BF1037BD4630
:1045A00080BD00BF00080048A00A002080B500AF11
:1045B000002240210548FDF717F80022802103481A
:1045C000FDF712F80123184680BD00BF000800481F
:1045D00080B400AF054B1B78022B01D1002300E013
:1045E00001231846BD465DF8047B70475201002048
:1045F00080B582B000AF7860164B1B78022B22D0BA
:10460000FFF7E6FF0346002B14D041F28830FFF796
:1046100097FF012280211048FCF7E6FF41F2883025
:10462000FFF78EFF012240210B48FCF7DDFF094B0D
:1046300001221A70074B1B78012B06D1054B022271
:104640001A7000BF02E000BF00E000BF0837BD469F
:1046500080BD00BF520100200008004880B584B032
:1046600000AF78600A4B1B78022B0BD1FFF79EFF3F
:104670000346FB73FB7B002B06D0054B00221A7010
:1046800000BF01E000BF00E000BF1037BD4680BDA5
:104690005201002080B582B000AF4FF4805107482E
:1046A000FCF78AFF03467B607B68002B14BF012365
:1046B0000023DBB218460837BD4680BD0004004821
:1046C0002DE9F04F89B000AF786039600A237B6133
:1046D0004FF000034FF00004C7E906343B68194669
:1046E0004FF000020B4614464FEA441B4BEAD36BD3
:1046F0004FEA431A53465C465B1A64EB02044FEAE6
:10470000840949EA93794FEA830843464C465B188B
:1047100044EB0204E60046EA5376DD002B463446BD
:10472000C7E902340CE07869FFF70AFF7B694FF0B4
:104730000004D7E906125B1844EB0204C7E906340B
:10474000FFF7A8FF034683F00103DBB2002B07D07D
:10475000D7E90634D7E90212A24208BF9942E2D251
:10476000D7E90634D7E90212A24208BF99422CBF0A
:1047700001230023DBB218462437BD46BDE8F08F85
:1047800080B400AF044B07EE903AB0EE670ABD4626
:104790005DF8047B704700BF001BB74B80B584B049
:1047A00000AF7860FCF718FCF860FB684FF47A7291
:1047B00002FB03F27B681A6000BF1037BD4680BD64
:1047C00080B58CB000AFF860B9607A600023FB62FE
:1047D00000233B6107F110031846FFF7DFFF3B6939
:1047E000BB62BB6A204A93422CBF012300237B6239
:1047F000BB6A1B0A1D4AA2FB03239A0A1C4BA3FB9C
:10480000021359090B461B015B1A9B00D31A3B622A
:10481000BB6A184AA2FB03239A0C154BA3FB021395
:1048200059090B461B015B1A9B00D31AFB61BB6A3B
:10483000114AA2FB03239B090F4AA2FB0312920910
:104840004FF47A7101FB02F29B1ABB61FB68052BE6
:1048500004D80A4AFB6813441B7800E03F23FB7529
:1048600000BF3037BD4680BD00A493D6C7541E019B
:104870008988888883DE1B43D34D6210EC190108B8
:1048800080B59CB000AF7860094A07F10803114673
:10489000682218460AF044F87B68184607F10803B6
:1048A000682219460AF03CF878687037BD4680BD2A
:1048B000F419010880B400AF00231846BD465DF826
:1048C000047B704780B483B000AF786000BF0C37C2
:1048D000BD465DF8047B704780B483B000AF78605C
:1048E00000BF0C37BD465DF8047B704780B400AF55
:1048F00000231846BD465DF8047B704780B400AFC6
:104900004FF0000307EE903AB0EE670ABD465DF83F
:10491000047B704780B483B000AF786039600023B7
:1049200018460C37BD465DF8047B704780B485B0EF
:1049300000AFF860B9607A6000BF1437BD465DF81B
:10494000047B704780B400AF00231846BD465DF875
:10495000047B704780B400AF40F6FF731846BD4635
:104960005DF8047B704780B400AF02231846BD4653
:104970005DF8047B704780B485B000AFF860B96023
:104980001346FB80002318461437BD465DF8047BB0
:10499000704780B483B000AF786000BF0C37BD466D
:1049A0005DF8047B704780B483B000AF786000BFCF
:1049B0000C37BD465DF8047B704780B483B000AF10
:1049C000786000BF0C37BD465DF8047B704780B44B
:1049D00000AF01231846BD465DF8047B704780B4E4
:1049E00083B000AF786000BF0C37BD465DF8047B34
:1049F000704780B483B000AF786000BF0C37BD460D
:104A00005DF8047B704780B483B000AF786000BF6E
:104A10000C37BD465DF8047B704780B485B000AFAD
:104A2000F860B9607A60002318461437BD465DF817
:104A3000047B704780B400AF00BFBD465DF8047BC7
:104A4000704780B483B000AF786000BF0C37BD46BC
:104A50005DF8047B704780B483B000AF78600B468C
:104A60007B80012318460C37BD465DF8047B7047F8
:104A700080B483B000AF786000BF0C37BD465DF8EE
:104A8000047B704780B483B000AF786000BF0C3700
:104A9000BD465DF8047B704780B400AF0023184624
:104AA000BD465DF8047B70472DE9F047BAB00EAF04
:104AB0006B469A4607F134031846FFF7E1FE07F10B
:104AC0003403184600F068FD034683F00103DBB2AF
:104AD000002B01D000232AE101F0C2F803463B631A
:104AE0003B6B002B03D100F0B3FD00231FE13B6BB8
:104AF0001021184601F048F93B6B184600F0C4FD40
:104B0000C7F8AC00DFED8D0A9FED8D0AD7F8AC0039
:104B100003F07EFB0121D7F8AC0003F0CBFB0121B1
:104B2000D7F8AC0003F0C6FB3B6B184601F018F851
:104B30000346FB62FB6A002B08D107F130031846DD
:104B400001F016F900F084FD0023F0E0FB6A07F1A4
:104B500020021146184601F01FF93B8DC7F8A83016
:104B6000D7F8A8104B1EC7F8A4300B461A464FF0D2
:104B700000034FEA431949EAD2694FEA42180B464B
:104B80001A464FF000035D0145EAD26554010B4619
:104B90009B0003330733DB08DB00ADEB030D0EABEB
:104BA00003339B089B00C7F8A030F86AD7F8A01021
:104BB000D7F8A8309AB2002301F0F6F8C7F89C00A5
:104BC000D7F89C30002B40F09B80D7F8A810D7F87E
:104BD000A030D3ED007ABCEEE77AD7F8A030D3ED61
:104BE000017AFCEEE76AD7F8A030D3ED027AFCEE4A
:104BF000E77A17EE904AD7F8A030D3ED037AFCEEAF
:104C0000E77A17EE905AD7F8A030D3ED047AFCEE8D
:104C1000E77A17EE906AD7F8A030D3ED057AFCEE6C
:104C2000E77AC7ED077AD7F8A030D3ED067AFCEE25
:104C3000E77AC7ED067AD7F8A030D3ED077AFCEE15
:104C4000E77AC7ED057AD7F8A030D3ED087AFCEE05
:104C5000E77AC7ED047AD7F8A030D3ED097AFCEEF5
:104C6000E77AC7ED037AD7F8A030D3ED0A7AFCEEE5
:104C7000E77AC7ED027AD7F8A030D3ED0B7AFCEED5
:104C8000E77AC7ED017AD7F8A030D3ED0C7AFCEEC5
:104C9000E77AC7ED007AD7F8A030D3ED0D7AFCEEB5
:104CA000E77A17EE900AD7F8A030D3ED0E7AFCEE33
:104CB000E77A17EE902AD7F8A030D3ED0F7AFCEE02
:104CC000E77A17EE903A0D930C920B903B680A939B
:104CD0007B680993BB680893FB6807933B6906935D
:104CE0007B690593BB690493FB6903930296019565
:104CF000009416EE903A17EE102A12480AF0C0F906
:104D000007F13003184601F033F8FB6A184600F04B
:104D1000FDFC07F12C03184600F03CFF00F098FC66
:104D2000D7F89C30002B0CBF01230023DBB2D54603
:104D30001846B037BD46BDE8F08700BF8FC2F53ECC
:104D40008FC2F53D5C1A010880B58AB000AF07F14B
:104D5000140300221A605A609A60DA601A614A4AA3
:104D6000494BDB6C43F08003D364474BDB6C03F0AF
:104D700080033B613B69444A434BDB6C43F00203D5
:104D8000D364414BDB6C03F00203FB60FB683E4ADB
:104D90003D4BDB6C43F00403D3643B4BDB6C03F013
:104DA0000403BB60BB68384A374BDB6C43F001033C
:104DB000D364354BDB6C03F001037B607B6800221E
:104DC00040213248FCF710FC002280212F48FCF7DC
:104DD0000BFC40237B610123BB610023FB610023AB
:104DE0003B6207F1140319462848FCF76BFA80234D
:104DF0007B610123BB610023FB6100233B6207F160
:104E0000140319462148FCF75DFA4FF480537B6187
:104E10000023BB610023FB6107F1140319461C4802
:104E2000FCF750FA02237B610123BB610023FB6185
:104E300000233B6207F1140319464FF09040FCF742
:104E400041FA01237B610123BB610023FB61002345
:104E50003B6207F1140319464FF09040FCF732FA19
:104E60004FF400537B610123BB610023FB610023EE
:104E70003B6207F1140319460448FCF723FA00BF0C
:104E80002837BD4680BD00BF001002400008004822
:104E90000004004880B500AFFCF754F800F03CF87F
:104EA0004FF47A70FCF7A4F8FFF74EFF00F0A8F873
:104EB00000F0A0F900F0CEF9012214491448FEF7E1
:104EC00023FA012202214FF09040FCF78DFBFFF7FF
:104ED000EBFD012201214FF09040FCF785FB002201
:104EE0004FF400510B48FCF77FFB4FF4FA70FCF7CE
:104EF0007FF8002201214FF09040FCF775FB012262
:104F00004FF400510348FCF76FFBE0E7F40B00207F
:104F10007C0B00200008004880B5AEB000AF07F160
:104F2000740344220021184609F01FFD07F16003B5
:104F300000221A605A609A60DA601A613B1D5C2296
:104F40000021184609F011FD01237B674FF48033DF
:104F5000BB670223C7F89C300323C7F8A0300123A6
:104F6000C7F8A4301423C7F8A8300723C7F8AC301B
:104F70000223C7F8B0300223C7F8B43007F1740336
:104F80001846FCF7ADFB0346002B01D000F031F8CA
:104F90000F233B6603237B660023BB660023FB666F
:104FA00000233B6707F1600304211846FCF73EFF2E
:104FB0000346002B01D000F01CF805237B60002382
:104FC0007B620023FB623B1D1846FDF741F9034657
:104FD000002B01D000F00DF84FF40070FCF72AFB15
:104FE0000346002B01D000F004F800BFB837BD46DF
:104FF00080BD80B400AF00BFBD465DF8047B704744
:1050000080B500AF1B4B1C4A1A601A4B4FF48272DA
:105010005A60184B00229A60164B4FF4E062DA6037
:10502000144B00221A61134B00225A61114B4FF4AA
:1050300000729A610F4B0022DA610E4B00221A6255
:105040000C4B00225A620B4B00229A62094B07223A
:10505000DA62084B00221A63064B08225A6305489D
:10506000FDF7FCFB0346002B02D0024B08225A63DB
:1050700000BF80BDA00A00200038004080B588B085
:1050800000AF78607B681B68114A93421CD1114ABB
:10509000104B9B6D43F4804393650E4B9B6D03F463
:1050A0008043BB60BB684FF46043FB6002233B61FD
:1050B00000237B610323BB610523FB6107F10C0324
:1050C00019460548FCF7FEF800BF2037BD4680BDF5
:1050D00000380040001002400004004880B483B053
:1050E00000AF0F4A0E4B1B6E43F0010313660C4BCF
:1050F0001B6E03F001037B607B68094A084B9B6DC4
:1051000043F080539365064B9B6D03F080533B60E7
:105110003B6800BF0C37BD465DF8047B704700BF9D
:105120000010024080B400AF00BFBD465DF8047BB4
:10513000704780B400AF00BFBD465DF8047B704788
:1051400080B400AFFEE780B400AFFEE780B400AFEC
:10515000FEE780B400AF00BFBD465DF8047B70473A
:1051600080B400AF00BFBD465DF8047B704780B4DB
:1051700000AF00BFBD465DF8047B704780B500AF4F
:10518000FBF71CFF00BF80BD80B400AF174A174B70
:10519000D3F8883043F47003C2F88830144A144BB3
:1051A0001B6843F001031360114B00229A60104A00
:1051B0000F4B1B6823F0A85323F4102313600C4BF0
:1051C0004FF48052DA600A4A094B1B6823F48023AB
:1051D0001360074B00229A61044B4FF000629A6003
:1051E00000BFBD465DF8047B704700BF00ED00E0E6
:1051F0000010024080B500AF144B154A1A60134BE3
:105200004FF4E1325A60114B00229A600F4B00229A
:10521000DA600E4B00221A610C4B0C225A610B4BC8
:1052200000229A61094B0022DA61084B00221A62BF
:10523000064B00225A620548FDF7C5FE0346002BC7
:1052400001D0FFF7D6FE00BF80BD00BF7C0B002061
:105250000038014080B500AF144B154A1A60134B5B
:105260004FF4E1325A60114B00229A600F4B00223A
:10527000DA600E4B00221A610C4B0C225A610B4B68
:1052800000229A61094B0022DA61084B00221A625F
:10529000064B00225A620548FDF795FE0346002B97
:1052A00001D0FFF7A6FE00BF80BD00BF040B0020A9
:1052B0000048004080B58CB000AF786007F11C0357
:1052C00000221A605A609A60DA601A617B681B6873
:1052D000334A934232D1334A324B1B6E43F48043FC
:1052E0001366304B1B6E03F48043BB61BB692D4AD0
:1052F0002C4BDB6C43F00103D3642A4BDB6C03F0D3
:1053000001037B617B694FF4C063FB6102233B6255
:1053100000237B620323BB620723FB6207F11C03AC
:1053200019464FF09040FBF7CDFF002200212520C9
:10533000FBF751FF2520FBF76AFF2DE07B681B6818
:10534000194A934228D1174A164B9B6D43F4802388
:105350009365144B9B6D03F480233B613B69114AB9
:10536000104BDB6C43F00203D3640E4BDB6C03F099
:105370000203FB60FB684FF44063FB6102233B6266
:1053800000237B620323BB620723FB6207F11C033C
:1053900019460648FBF796FF00BF3037BD4680BD73
:1053A000003801400010024000480040000400485E
:1053B00080B582B000AF7860391D4FF0FF33012215
:1053C0000348FDF751FE7B6818460837BD4680BD8F
:1053D0007C0B002080B586B000AFF860B9607A60C1
:1053E00000237B6109E0BB685A1CBA601B78184631
:1053F000FFF7DEFF7B6901337B617A697B689A4244
:10540000F1DB7B6818461837BD4680BD80B582B099
:1054100000AF78607B681B681F4A934237D11F4BEF
:105420001B78022B33D01D4B1B78012B13D11C4B47
:105430001B780A2B03D0194B00221A7027E0174B58
:1054400002221A70FEF74AFF164B00221A80134BF5
:1054500000221A701BE0124B1B780D2B03D10F4B4F
:1054600001221A7013E00F4B1B881A460C4B197857
:105470000D4B99540B4B1B8801339AB2094B1A8080
:10548000084B1B88C82B02D9064B00221A8000BF8C
:105490000837BD4680BD00BF0038014056010020DE
:1054A000F40B002054010020F80B002080B582B0DE
:1054B00000AF00237B60174B3B601748FDF7C4FF2C
:1054C00000237B6006E07B6801337B607A683B6881
:1054D0009A4206D81048FEF7F9F80346202BF2D17D
:1054E00000E000BF00237B6006E07B6801337B6047
:1054F0007A683B689A4208D8012208490648FDF7B5
:1055000003FF0346002BF0D100E000BF00BF0837C7
:10551000BD4680BDFFFF01007C0B0020F40B002086
:1055200080B582B000AFF91D642301220448FDF765
:1055300028FE0348FDF788FF00BF0837BD4680BD41
:105540007C0B0020DFF834D0002103E00C4B5B58CB
:10555000435004310B480C4B42189A42F6D30B4A85
:1055600002E0002342F8043B094B9A42F9D3FFF7CB
:105570000BFE09F0A1F9FFF78DFCFEE7000001200A
:105580000CB101080000002034010020340100208B
:10559000C40C0020FEE7000038B5244C2378EBB99A
:1055A00070B103F0CBF80546002834D000F0B6FA0D
:1055B000E0B9207820BB1E4A1E4903F077FA12E0BA
:1055C000FFF778F9054608B3FFF7BCF9054640B385
:1055D000194A1849022003F069FAE7E7174A154902
:1055E000022003F063FA2578284638BD03F050FC0A
:1055F0000028DED000F08CFF0028DAD001232370D1
:105600000F4A0C49022003F051FAECE70D4A094910
:1056100003F04CFAE8E70C4A064903F047FA28463B
:1056200038BD0A4A034903F041FADDE7570100207B
:10563000506101086C600108A860010868610108F8
:1056400030610108386001081861010870600108C4
:1056500010B50A4C237803B910BD00F075FA03F0B9
:1056600021FC00F0A1FF064A0649022003F01EFAC1
:1056700003F0B8F80023237010BD00BF57010020CD
:10568000906101086C60010808B10069704710B5AD
:10569000034A04490446012003F008FA204610BDDD
:1056A000CC630108F0630108124B1B7810B58BB175
:1056B000044618B1104B02689A4206D00F4A1049AE
:1056C000002003F0F3F9012010BD037B012B09D06A
:1056D000002010BD18460B4A0B4B094903F0E6F9B0
:1056E000012010BD806A08B103F084FD0020207302
:1056F00010BD00BF58010020E89EC0ACF461010855
:10570000F063010814620108B4610108114B1B78B1
:1057100010B5B3B1044618B10F4B02689A4206D0D7
:105720000E4A0F49002003F0C1F9012010BD037B90
:105730002BB9806A08B103F0A3FD01232373002075
:1057400010BD084B084A0649012003F0AFF90120BB
:1057500010BD00BF58010020E89EC0ACF4610108F4
:10576000F0630108CC6101081462010810B4002341
:10577000044C046001710261037383605DF8044BA3
:10578000704700BFD79DC0AC8368187BB0FA80F02B
:105790004009704738B50D460446114628461A465A
:1057A000049B03F0B3FCA062003018BF012038BD99
:1057B000806A03F0E7BD00BF836A13B1283003F0AD
:1057C000ADBD704710B5044603F064F900B910BDD3
:1057D0002069BDE8104003F0BDB800BF10B5044615
:1057E00003F058F900B910BD2069BDE8104003F07E
:1057F000BDB800BF2DE9F0430D4683B00446002834
:105800002DD04B680BB18B681BBB554A5549002006
:1058100003F04CF9237BBBB1534A5249002003F0FB
:1058200045F90126304603B0BDE8F08383680A7865
:105830001B799A4228D000924C4A4A49002003F032
:1058400035F9237B002BE7D10126304603B0BDE8B4
:10585000F083474B02689A42E8D0464AD6E7464A68
:10586000404903F023F96B6843B1AB6833B120467C
:105870003D4A3C4903F01AF90126D3E7384A394931
:10588000002003F013F9C7E7806A4E7803F07EFD2D
:1058900086425BD1A36893F80C80B8F1000F5CD10D
:1058A00095F81490B9F1000F2AD1277B002FB3D1BE
:1058B00020460126FFF786FF2046E5622675FFF7A2
:1058C0008DFF03F0E7F878B3A18BA06903F096F899
:1058D00088B32046FFF776FF237D022B0CBF6E7D39
:1058E000012600232375E3622046FFF777FF002F90
:1058F00098D02046FFF70AFF304603B0BDE8F0839A
:105900002046FFF7D1FE237BB0FA80F706467F09D9
:105910001BB9002886D14F46CAE74046124A1149B2
:1059200003F0C4F80126E2E7A06A03F0C5FB2046B5
:10593000FFF748FFD0E7E3690093104A104B09498D
:1059400003F0B4F82046FFF73DFFCAE7A06A03F072
:105950001DFD009603460B4A6FE70B4A56E700BF52
:105960007C630108F06301089C620108D0620108B1
:10597000E89EC0ACF46101085C6201086463010840
:10598000E4610108FC620108346301082DE9F84371
:1059900004461F46894690469DF82060FFF712FF97
:1059A000237D012B04D02046BDE8F843FFF716BF46
:1059B000E56A6868E8B1A6B1E8686E7518B12A6949
:1059C000394608F0ADFF0223237503F063F8002881
:1059D000E9D0A06903F01EF82046BDE8F843FFF7C0
:1059E000FDBEAA684245494628BF424608F098FFD6
:1059F000E2E7034A0349032003F058F8DCE700BF5D
:105A0000F8630108F0630108014B1870704700BF8C
:105A10005801002008B518B10268064B9A4206D01A
:105A2000054A0649002003F041F8002008BD012086
:105A300008BD00BFE89EC0ACF4610108F063010836
:105A400008B518B10268064B9A4206D0054A0649C5
:105A5000002003F02BF8002008BD012008BD00BF86
:105A6000D79DC0AC2C620108F063010830B583B04B
:105A70000D794C798B688DF80440014600931046EF
:105A8000D2E929438DF805506A46A04703B030BDDE
:105A900070B584B04C798DF80C400B4615460A69F8
:105AA00000941E798DF80D60014628469D68029588
:105AB00002ABFFF76BFF04B070BD00BF30B587B01D
:105AC0000446FFF761FE124D124B0094002818BFE8
:105AD0002B4604F1440104F188022046FFF75AFEE8
