:020000040800F2
:1000000000000120213500088132000883320008F9
:10001000853200088732000889320008000000009D
:100020000000000000000000000000008B3200080B
:100030008D320008000000008F3200089132000865
:1000400071350008713500087135000871350008F8
:1000500071350008713500087135000871350008E8
:1000600071350008713500087135000871350008D8
:1000700071350008713500087135000871350008C8
:1000800071350008713500087135000871350008B8
:1000900071350008713500087135000871350008A8
:1000A0007135000871350008713500087135000898
:1000B00071350008000000000000000071350008E4
:1000C0007135000871350008713500087135000878
:1000D00071350008C1340008713500080135000889
:1000E00071350008713500080000000000000000B4
:1000F0000000000000000000000000000000000000
:100100000000000071350008000000007135000893
:100110000000000000000000713500087135000883
:100120007135000871350008713500087135000817
:100130007135000800000000000000000000000011
:1001400071350008713500087135000800000000A5
:1001500071350008713500087135000871350008E7
:100160007135000871350008713500080000000085
:100170007135000871350008000000000000000023
:0C01800071350008713500087135000869
:1001900010B5054C237833B9044B13B10448AFF3C1
:1001A00000800123237010BD3401002000000000F6
:1001B000C0F7000808B5034B1BB103490348AFF370
:1001C000008008BD0000000038010020C0F70008D2
:1001D00007B500F006F8BDE807406FF003030439E7
:1001E00003E0042301EB82015242920000D17047E8
:1001F0002DE9F047B0F800A044888588C6880089BA
:10020000C6F57046C4EA064CC5EA004E0024002537
:10021000002600275FF000085FF0000988581AFBED
:1002200000881AFB10992CFB04882CFB15994EFBB7
:1002300006884EFB179926002F00C0EA0814C0EA72
:1002400029352804C0EA24408850D218E6D1BDE8F8
:10025000F08707B500F006F8BDE807406FF001032E
:10026000023903E0022301EB42015242520000D165
:1002700070472DE97044B0F800A044888588C6888E
:100280000089C6F57046C4EA064CC5EA004E002453
:1002900000250026885A1AFB00662CFB04664EFBDC
:1002A00005662500C0EA061420148852D218F1D140
:1002B000BDE87084000000000000000000000000A5
:1002C00001F0FF01102A2BDB10F0070F08D010F807
:1002D000013B013A8B422DD010F0070F42B3F6D10B
:1002E000F0B441EA012141EA014122F007047FF024
:1002F00000070023F0E80256083C85EA010586EA7B
:10030000010685FA47F5A3FA87F586FA47F6A5FAB6
:1003100087F68EB9EED1F0BC01F0FF0102F00702C2
:1003200032B110F8013B013A83EA010313B1F8D16D
:100330000020704701387047002D06BF354603384E
:10034000073815F0010F07D1013015F4807F02BF87
:10035000013015F4C03F0130F0BC0138704700BFD8
:1003600081F0004102E000BF83F0004330B54FEA66
:1003700041044FEA430594EA050F08BF90EA020FD3
:100380001FBF54EA000C55EA020C7FEA645C7FEA66
:10039000655C00F0E2804FEA5454D4EB5555B8BF89
:1003A0006D420CDD2C4480EA020281EA030382EAFA
:1003B000000083EA010180EA020281EA0303362D8C
:1003C00088BF30BD11F0004F4FEA01314FF4801C5F
:1003D0004CEA113102D0404261EB410113F0004F71
:1003E0004FEA03334CEA133302D0524263EB430328
:1003F00094EA050F00F0A780A4F10104D5F1200EC6
:100400000DDB02FA0EFC22FA05F2801841F1000120
:1004100003FA0EF2801843FA05F359410EE0A5F1F4
:1004200020050EF1200E012A03FA0EFC28BF4CF025
:10043000020C43FA05F3C01851EBE37101F00045DB
:1004400007D54FF0000EDCF1000C7EEB00006EEBE8
:100450000101B1F5801F1BD3B1F5001F0CD3490872
:100460005FEA30004FEA3C0C04F101044FEA4452C9
:1004700012F5800F80F09A80BCF1004F08BF5FEA50
:10048000500C50F1000041EB045141EA050130BD30
:100490005FEA4C0C404141EB010111F4801FA4F1D3
:1004A0000104E9D191F0000F04BF01460020B1FA28
:1004B00081F308BF2033A3F10B03B3F120020CDA60
:1004C0000C3208DD02F1140CC2F10C0201FA0CF03E
:1004D00021FA02F10CE002F11402D8BFC2F1200CA3
:1004E00001FA02F120FA0CFCDCBF41EA0C01904059
:1004F000E41AA2BF01EB0451294330BD6FEA0404A2
:100500001F3C1CDA0C340EDC04F11404C4F120028C
:1005100020FA04F001FA02F340EA030021FA04F39E
:1005200045EA030130BDC4F10C04C4F1200220FAF5
:1005300002F001FA04F340EA0300294630BD21FA33
:1005400004F0294630BD94F0000F83F4801306BFF9
:1005500081F480110134013D4EE77FEA645C18BFED
:100560007FEA655C29D094EA050F08BF90EA020F84
:1005700005D054EA000C04BF1946104630BD91EA7C
:10058000030F1EBF0021002030BD5FEA545C05D17F
:100590004000494128BF41F0004130BD14F58004BE
:1005A0003CBF01F5801130BD01F0004545F0FE4132
:1005B00041F470014FF0000030BD7FEA645C1ABF67
:1005C000194610467FEA655C1CBF0B46024650EA9E
:1005D000013406BF52EA033591EA030F41F40021CA
:1005E00030BD00BF90F0000F04BF0021704730B550
:1005F0004FF4806404F132044FF000054FF0000125
:1006000050E700BF90F0000F04BF0021704730B5E5
:100610004FF4806404F1320410F0004548BF4042BA
:100620004FF000013EE700BF42004FEAE2014FEA0F
:1006300031014FEA02701FBF12F07F4393F07F4FEA
:1006400081F06051704792F0000F14BF93F07F4F1C
:10065000704730B54FF4607401F0004521F000415F
:1006600020E700BF50EA010208BF704730B54FF0E5
:1006700000050AE050EA010208BF704730B511F0EA
:10068000004502D5404261EB41014FF4806404F122
:1006900032045FEA915C3FF4DCAE4FF003025FEAA4
:1006A000DC0C18BF03325FEADC0C18BF033202EB2C
:1006B000DC02C2F1200300FA03FC20FA02F001FA86
:1006C00003FE40EA0E0021FA02F11444C1E600BF25
:1006D00070B54FF0FF0C4CF4E06C1CEA11541DBFD8
:1006E0001CEA135594EA0C0F95EA0C0F00F0DEF8A3
:1006F0002C4481EA030621EA4C5123EA4C5350EA88
:10070000013518BF52EA033541F4801143F48013D8
:1007100038D0A0FB02CE4FF00005E1FB02E506F069
:100720000042E0FB03E54FF00006E1FB03569CF0BE
:10073000000F18BF4EF0010EA4F1FF04B6F5007FC4
:1007400064F5407404D25FEA4E0E6D4146EB060636
:1007500042EAC62141EA55514FEAC52040EA5E50BF
:100760004FEACE2EB4F1FD0C88BFBCF5E06F1ED869
:10077000BEF1004F08BF5FEA500E50F1000041EBA0
:10078000045170BD06F0004646EA010140EA02004D
:1007900081EA0301B4EB5C04C2BFD4EB0C0541EA6F
:1007A000045170BD41F480114FF0000E013C00F384
:1007B000AB8014F1360FDEBF002001F0004170BDA8
:1007C000C4F10004203C35DA0C341BDC04F11404C1
:1007D000C4F1200500FA05F320FA04F001FA05F24D
:1007E00040EA020001F0004221F0004110EBD3701A
:1007F00021FA04F642EB06015EEA430E08BF20EA46
:10080000D37070BDC4F10C04C4F1200500FA04F3E8
:1008100020FA05F001FA04F240EA020001F000417A
:1008200010EBD37041F100015EEA430E08BF20EAED
:10083000D37070BDC4F1200500FA05F24EEA020E35
:1008400020FA04F301FA05F243EA020321FA04F064
:1008500001F0004121FA04F220EA020000EBD3701B
:100860005EEA430E08BF20EAD37070BD94F0000F1B
:100870000FD101F00046400041EB010111F4801F4F
:1008800008BF013CF7D041EA060195F0000F18BF00
:10089000704703F00046520043EB030313F4801F3C
:1008A00008BF013DF7D043EA0603704794EA0C0FF6
:1008B0000CEA135518BF95EA0C0F0CD050EA41060C
:1008C00018BF52EA4306D1D181EA030101F0004189
:1008D0004FF0000070BD50EA410606BF10461946B1
:1008E00052EA430619D094EA0C0F02D150EA0136BD
:1008F00013D195EA0C0F05D152EA03361CBF1046FE
:1009000019460AD181EA030101F0004141F0FE419C
:1009100041F470014FF0000070BD41F0FE4141F420
:10092000780170BD70B54FF0FF0C4CF4E06C1CEA20
:1009300011541DBF1CEA135594EA0C0F95EA0C0FD5
:1009400000F0A7F8A4EB050481EA030E52EA033590
:100950004FEA013100F088804FEA03334FF08055B1
:1009600045EA131343EA12634FEA022245EA1115DE
:1009700045EA10654FEA00260EF000419D4208BF8F
:10098000964244F1FD0404F5407402D25B084FEA3C
:100990003202B61A65EB03055B084FEA32024FF4E8
:1009A00080104FF4002CB6EB020E75EB030E22BF45
:1009B000B61A754640EA0C005B084FEA3202B6EB05
:1009C000020E75EB030E22BFB61A754640EA5C00B4
:1009D0005B084FEA3202B6EB020E75EB030E22BF44
:1009E000B61A754640EA9C005B084FEA3202B6EB45
:1009F000020E75EB030E22BFB61A754640EADC0004
:100A000055EA060E18D04FEA051545EA16754FEA65
:100A100006164FEAC30343EA52734FEAC2025FEA83
:100A20001C1CC0D111F4801F0BD141EA00014FF012
:100A300000004FF0004CB6E711F4801F04BF0143E3
:100A40000020B4F1FD0C88BFBCF5E06F3FF6AFAEFF
:100A5000B5EB030C04BFB6EB020C5FEA500C50F18F
:100A6000000041EB045170BD0EF0004E4EEA113112
:100A700014EB5C04C2BFD4EB0C0541EA045170BD19
:100A800041F480114FF0000E013C90E645EA060E5D
:100A90008DE60CEA135594EA0C0F08BF95EA0C0F8B
:100AA0003FF43BAF94EA0C0F0AD150EA01347FF4D3
:100AB00034AF95EA0C0F7FF425AF104619462CE7AA
:100AC00095EA0C0F06D152EA03353FF4FDAE10460D
:100AD000194622E750EA410618BF52EA43067FF45E
:100AE000C5AE50EA41047FF40DAF52EA43057FF4EE
:100AF000EBAE12E74FEA4102B2F1E04324BFB3F597
:100B0000001CDCF1FE5C0DD901F0004C4FEAC00284
:100B10004CEA5070B2F1004F40EB830008BF20F068
:100B20000100704711F0804F21D113F13872BCBF22
:100B300001F00040704741F480114FEA5252C2F177
:100B40001802C2F1200C10FA0CF320FA02F018BFC0
:100B500040F001004FEAC1234FEAD32303FA0CFC13
:100B600040EA0C0023FA02F34FEA4303CCE77FEAA2
:100B7000625307D150EA01331EBF4FF0FE4040F4EC
:100B80004000704701F0004040F0FE4040F400009B
:100B9000704700BF7BB972B90029BEBF00204FF07B
:100BA000004106E008BF00281CBF6FF000414FF075
:100BB000FF3000F0C5B9ADF1080C6DE904CE002995
:100BC00009DB002B1ADB00F04DF8DDF804E0DDE96D
:100BD000022304B07047404261EB4101002B1BDB54
:100BE00000F040F8DDF804E0DDE9022304B0404203
:100BF00061EB4101524263EB43037047524263EBA6
:100C0000430300F02FF8DDF804E0DDE9022304B02F
:100C1000404261EB41017047524263EB430300F0F5
:100C200021F8DDF804E0DDE9022304B0524263EB71
:100C30004303704753B94AB9002908BF00281CBFB5
:100C40004FF0FF314FF0FF3000F07AB9ADF1080CF2
:100C50006DE904CE00F006F8DDF804E0DDE90223DA
:100C600004B070472DE9F0478C460D460446089EB7
:100C7000002B51D18A4217466DD9B2FA82FEBEF1DD
:100C8000000F0BD0CEF1200C01FA0EF520FA0CFC6F
:100C900002FA0EF74CEA050C00FA0EF44FEA174A76
:100CA000250CBCFBFAF81FFA87F90AFB18CC45EAB9
:100CB0000C4508FB09F3AB420AD9ED1908F1FF32E4
:100CC00080F02381AB4240F22081A8F102083D442C
:100CD000ED1AA4B2B5FBFAF00AFB105544EA05443C
:100CE00000FB09F9A14509D9E41900F1FF3380F0AF
:100CF0000A81A14540F2078102383C44A4EB090473
:100D000040EA08400021002E61D024FA0EF40023AE
:100D100034607360BDE8F0878B4207D9002E54D051
:100D2000002186E821000846BDE8F087B3FA83F188
:100D3000002940F08E80AB4202D3824200F2FA805A
:100D4000841A65EB03050120AC46002E3FD086E8EF
:100D50001010BDE8F08712B90127B7FBF2F7B7FA18
:100D600087FEBEF1000F34D1EB1B3A0C1FFA87FC53
:100D70000121B3FBF2F8250C02FB183345EA0345C9
:100D80000CFB08F3AB4207D9ED1908F1FF3002D292
:100D9000AB4200F2D1808046ED1AA3B2B5FBF2F06F
:100DA00002FB105543EA05440CFB00FCA44507D99F
:100DB000E41900F1FF3302D2A44500F2B8801846CE
:100DC000A4EB0C0440EA08409DE731463046BDE8FC
:100DD000F087CEF1200405FA0EF307FA0EF720FA99
:100DE00004F83A0C25FA04F448EA0308B4FBF2F1DB
:100DF0004FEA184502FB11441FFA87FC45EA0445F7
:100E000001FB0CF3AB4200FA0EF409D9ED1901F124
:100E1000FF3080F08A80AB4240F2878002393D4447
:100E2000EB1A1FFA88F5B3FBF2F002FB103345EA28
:100E3000034500FB0CF3AB4207D9ED1900F1FF3875
:100E40006FD2AB426DD902383D44EB1A40EA014102
:100E50008FE7C1F1200722FA07F88B4005FA01F469
:100E600048EA030320FA07FE4FEA134CFD404EEA1E
:100E7000040EB5FBFCF94FEA1E440CFB19551FFA92
:100E800083F844EA054509FB08F4AC4202FA01F292
:100E900000FA01FA08D9ED1809F1FF3043D2AC424B
:100EA00041D9A9F102091D442D1B1FFA8EFEB5FB85
:100EB000FCF00CFB10554EEA054400FB08F8A04579
:100EC00007D9E41800F1FF3529D2A04527D9023807
:100ED0001C4440EA0940A4EB0804A0FB02894C45ED
:100EE000C6464D4615D312D056B1BAEB0E0364EB8D
:100EF000050404FA07F7CB401F43CC403760746009
:100F00000021BDE8F0871846F8E69046E0E6C245C5
:100F1000EAD2B8EB020E69EB03050138E4E7284694
:100F2000D7E7404691E78146BEE7014678E70238B9
:100F30003C4445E7084608E7A8F102083D442BE792
:100F4000704700BF38B50A4B054618684FF47A73EE
:100F5000B0FBF3F000F08CF8044638B9024629469D
:100F60004FF0FF3000F044F8204638BD012038BD76
:100F70000800002010B5032000F028F80020FFF73B
:100F8000E1FF044618B902F063F9204610BD0124C0
:100F9000FBE70000024A136801331360704700BF8B
:100FA0009C0A0020014B1868704700BF9C0A002073
:100FB00038B50446FFF7F6FF631C054618BF013439
:100FC000FFF7F0FF401B8442FAD838BD074AD368C8
:100FD00023F4E0631B041B0C43F0BF63000243F4E3
:100FE000003300F4E0600343D360704700ED00E09D
:100FF000174B30B5DC68C4F30224C4F10703251D88
:10100000042B28BF0423062D4FF0010505FA03F336
:1010100003F1FF338CBF033C00241940A14005FAC3
:1010200004F4013C2240002842EA01024FEA021285
:10103000AFBF00F1604000F00F00064BD2B2A5BF79
:1010400000F56140D2B21A5480F8002330BD00BFD1
:1010500000ED00E014ED00E04209012300F01F0064
:1010600003FA00F0014B43F82200704700E100E072
:101070000138B0F1807F0AD2064B074A5860F02150
:1010800082F823100020072298601A607047012020
:10109000704700BF10E000E000ED00E090F8252070
:1010A000022A10B503D00422C263012010BD0268D9
:1010B000046C1168836B21F00E011160116821F03E
:1010C00001011160426C012102F01C0201FA02F2DE
:1010D0006260002480F8251080F8244013B19847FE
:1010E000204610BD184610BD2DE9F74FD1F80080FD
:1010F000DFF874915A4A002338FA03F402D103B09E
:10110000BDE8F08F012404FA03FA18EA0A0500F09A
:101110009C804C6824F0100BBBF1020F14D14FEAF5
:10112000D30E00EB8E0E03F0070CDEF820604FEAC2
:101130008C0C0F2707FA0CF726EA07070E6906FA48
:101140000CF63E43CEF820604FEA430C03270668B6
:1011500007FA0CF7FF4304F0030E3E400EFA0CFEB4
:101160000BF1FF3B4EEA0606BBF1010F066011D8FA
:10117000866806EA070BCE6806FA0CFE4EEA0B06F6
:101180008660466826EA0A0AC4F300169E4046EACC
:101190000A064660C66837408E6806FA0CF6374382
:1011A000E600C76051D5D9F8606046F00106C9F87D
:1011B0006060D9F8606023F0030707F1804706F00C
:1011C000010607F58037019603F0030C019EBE6807
:1011D0004FEA8C0C4FF00F0E0EFA0CFEB0F1904F50
:1011E00026EA0E0E33D01F4EB04232D006F580668E
:1011F000B04230D006F58066B0422ED006F580664B
:10120000B04214BF0726042606FA0CF646EA0E067C
:10121000BE601668EF4314F4803F0CBF3E402E437F
:101220001660566814F4003F0CBF3E402E435660D3
:10123000966814F4801F0CBF3E402E439660D6681B
:10124000A40254BF3E402E43D660013354E700262B
:10125000DAE70126D8E70226D6E70326D4E700BF5F
:1012600000040140000400480010024003691942D4
:1012700014BF0120002070470AB18161704781626C
:1012800070470000024B186800F4C060704700BF50
:1012900000700040174B1A68B0F5007F02F4C0627E
:1012A0001CD1B2F5007F15D01A6822F4C06242F456
:1012B00000721A60104A116832224A430F49B2FB89
:1012C000F1F2194601325869400500D522B94B693F
:1012D0005B050DD400207047013AF4E7B2F5806F4A
:1012E0001FBF1A6822F4C06242F480621A60F1E7FC
:1012F00003207047007000400800002040420F00AB
:1013000037B51E4DAB6DDA00044618D5FFF7BAFFAE
:10131000B0F5007F23D1802C29D9A02C8CBF0220CE
:101320000120174A136823F007030343136013686F
:1013300003F00703181A18BF012003B030BDAB6DCE
:1013400043F08053AB65AB6D03F080530193019B79
:10135000FFF798FFAB6D23F08053AB65D8E7802C87
:1013600007D808D0A4F1700358425841D9E70020AB
:10137000D7E70320D5E70220D3E700BF00100240E3
:1013800000200240254B9A68D96812F00C0205D063
:101390000C2A15D101F00301012918D11968204840
:1013A000090755BFD3F894101968C1F30321C1F39D
:1013B000031150F8210082B30C2A09D00020704795
:1013C000042A29D0082A174818BF00207047002097
:1013D000D968DA6801F00301C2F30212022902F1AE
:1013E000010205D0032912D0D968C1F3062103E018
:1013F000D9680D48C1F30621DB68B0FBF2F0C3F3F6
:101400004163013348435B00B0FBF3F07047D96898
:101410000448C1F30621EFE703487047001002407B
:101420001C3D010800127A000024F4002DE9F74366
:10143000054608B9012046E0A84C0368A668E7689D
:10144000DB0606F00C0607F0030772D51EB10C2E62
:1014500051D1012F4FD12368980702D5AB69002BDA
:10146000E8D02368286A190756BFD4F89430236857
:101470001B0903F0F003834228D2FFF741FF002845
:10148000D8D1236843F00803236023682A6A23F035
:10149000F003134323606368EA6923F47F4343EA5C
:1014A00002236360FFF76EFFA3688D4AC3F3031343
:1014B000D35C03F01F03D8408A4B18600020FFF76D
:1014C00041FD002835D003B0BDE8F083236843F028
:1014D00008032360236823F0F00303432360636859
:1014E000EA6923F47F4343EA02236360FFF708FFBE
:1014F0000028D7D09EE7AB69002B3AD0236843F091
:1015000001032360FFF74EFD804623689A0728D524
:10151000236843F00803236023682A6A23F0F0035A
:10152000134323606368EA6923F47F4343EA022399
:1015300063602B68D8072DD42B6899076BD42B6870
:10154000180700F1A0802B68590700F1CD802B68A7
:10155000990600F13681AB6A002B40F05C810020D7
:10156000B1E7FFF71FFDA0EB08000228CDD903204B
:10157000A9E7236823F001032360FFF713FD8046EA
:1015800023689B07D5D5FFF70DFDA0EB08000228C7
:10159000F6D9ECE7082E03D00C2E08D1032F06D184
:1015A00023689A03C8D56B68002BC5D142E76B68E6
:1015B000B3F5803F10D1236843F480332360FFF7F5
:1015C000F1FC804623689B03B6D4FFF7EBFCA0EB4D
:1015D00008006428F6D9CAE7B3F5A02F04D1236820
:1015E00043F480232360E6E7226822F480322260FD
:1015F000226822F480222260002BE0D1FFF7D2FC87
:1016000080462368980397D5FFF7CCFCA0EB080031
:101610006428F6D9ABE7042E03D00C2E10D1022F8C
:101620000ED12368590503D5EB68002B3FF402AFB8
:1016300063682A6923F0F85343EA026363607EE734
:10164000EB687BB1236843F480732360FFF7AAFC47
:10165000074623685A05EBD4FFF7A4FCC01B0228F9
:10166000F7D984E7236823F480732360FFF79AFC9B
:10167000074623685B057FF562AFFFF793FCC01B4D
:101680000228F6D973E76B699BB1D4F8943043F024
:101690000103C4F89430FFF785FC0746D4F8943072
:1016A0009A073FF550AFFFF77DFCC01B0228F5D924
:1016B0005DE7D4F8943023F00103C4F89430FFF7C9
:1016C00071FC0746D4F894309B077FF53CAFFFF7D9
:1016D00069FCC01B0228F5D949E700BF0010024091
:1016E000043D010808000020A36DD80029D4A36D93
:1016F00043F08053A365A36D03F080530193019BD6
:101700004FF00108714F3B68D9051DD5AB68012B1F
:101710002BD1D4F8903043F00103C4F89030FFF798
:1017200041FC41F288390746D4F890309B0742D5F6
:10173000B8F1000F3FF40BAFA36D23F08053A36506
:1017400005E74FF00008DDE73B6843F480733B603A
:10175000FFF728FC81463B68DA05D7D4FFF722FC67
:10176000A0EB09000228F6D901E7052B06D1D4F831
:10177000903043F00403C4F89030CAE7D4F89020C6
:1017800022F00102C4F89020D4F8902022F0040244
:10179000C4F89020002BC2D1FFF704FC41F2883935
:1017A0000746D4F890309807C2D5FFF7FBFBC01B63
:1017B0004845F6D9DBE6FFF7F5FBC01B4845B3D932
:1017C000D5E66B6A9BB1D4F8983043F00103C4F8B6
:1017D0009830FFF7E7FB0746D4F898309A073FF5B3
:1017E000BAAEFFF7DFFBC01B0228F5D9BFE6D4F87D
:1017F000983023F00103C4F89830FFF7D3FB074675
:10180000D4F898309B077FF5A6AEFFF7CBFBC01B43
:101810000228F5D9ABE60C2E3FF40CAE022B236860
:1018200023F08073236036D1FFF7BCFB06462368A4
:1018300098012AD4AB6B6A6BDB0643EA0223EA6A9F
:1018400013432A6B013A43EA0213EA6B5208013A46
:1018500043EA42532A6C5208013A43EA4263E36086
:10186000236843F080732360E36843F08073E36090
:10187000FFF798FB0546236899013FF570AEFFF727
:1018800091FB401B0228F6D971E6FFF78BFB801B0A
:101890000228CCD96BE623681A015EBFE36823F007
:1018A0000303E360E36823F0887323F48033E36089
:1018B000FFF778FB054623689B017FF550AEFFF7E5
:1018C00071FB401B0228F6D951E600BF00700040B2
:1018D0002DE9F0410E46044610B90120BDE8F08123
:1018E000404A136803F007038B4229D32368D907C2
:1018F00031D421688A075BD43A4A136803F007039E
:101900009E425DD311F0040F374D64D10B0706D50D
:10191000AB68226923F4605343EAC203AB60FFF76C
:1019200031FDAB68314AC3F30313BDE8F041D35C2A
:1019300003F01F03D8402E4B18600020FFF702BBB6
:10194000136823F007030B431360136803F00703C6
:101950009942C2D1CAE76268234D032A2B681BD182
:1019600013F0007FB9D0AB6823F003031343AB60DF
:10197000FFF718FB41F288380746AB68626803F04E
:101980000C03B3EB820FB4D0FFF70CFBC01B404538
:10199000F3D90320BDE8F081022A02D113F4003FFD
:1019A000E0E712B913F0020FDCE713F4806FD9E718
:1019B0000D4AA068936823F0F003034393609BE70C
:1019C000136823F0070333431360136803F007031E
:1019D0009E4282D196E7AB68E26823F4E06313434A
:1019E000AB6093E70020024000100240043D010874
:1019F00008000020054B064A9B68C3F30223D35C12
:101A0000044A106803F01F03D840704700100240DA
:101A1000143D010808000020054B064A9B68C3F3EB
:101A2000C223D35C044A106803F01F03D8407047F8
:101A300000100240143D010808000020F8B5444B96
:101A4000DA6812F0030F05460E461C46006839D0CE
:101A5000DA6802F0030282424BD1002A49D0DB68E7
:101A60006A68C3F302130133934242D1236823F01F
:101A700080632360FFF796FA074623681A0141D472
:101A8000AF68002E45D0012E4FD12269286922F47B
:101A9000C002400822F4FE42013842EA072242EA2C
:101AA00040522261236843F080632360FFF77AFA93
:101AB000064623681B0145D52369AA6913432361A0
:101AC0000020F8BD022810D0032814D0012810D11E
:101AD0001B689F07F5D5E3686A6823F07303013A32
:101AE000184340EA0210E060C0E71B6813F4806FFF
:101AF000F1D10120F8BD1A689103ECD41B6813F4EE
:101B0000802FF5E7FFF74EFAC01B0228B5D9032056
:101B1000F8BD2269E96822F07842C90641EA072344
:101B200022F4FE4213432361BCE72369686923F072
:101B3000C063400823F4FE43013843EA072343EA25
:101B40004063F0E7FFF72EFA801B0228B1D9DEE7E9
:101B5000001002402DE9F743056815F400650446BE
:101B60000ED0416CB1F5000F53D0B1F5400F55D0F8
:101B700000295ED10430FFF761FF054600284DD0F3
:101B80002368980363D59E4EB36DD90040F12C8134
:101B90000027DFF87082D8F8003043F48073C8F86B
:101BA0000030FFF7FFF98146D8F80030DA0542D55A
:101BB000002D47D1D6F8903013F4407314D0A26DA5
:101BC000934211D0D6F89030D6F8902042F480326B
:101BD000C6F89020D6F8902023F4407322F4803287
:101BE000C6F89020C6F89030DB0709D5FFF7DAF980
:101BF00041F288398046D6F89030980740F1D68077
:101C0000D6F89030A26D23F440731343C6F8903099
:101C100018E07B4AD36843F48033D360784A616C20
:101C2000D2F8883023F440030B43C2F888300025F3
:101C3000A6E70125A4E7FFF7B5F9A0EB0900022804
:101C4000B2D903251FB1B36D23F08053B365236868
:101C5000D90708D56A49206AD1F8882022F0030202
:101C60000243C1F888209A0708D56549606AD1F80F
:101C7000882022F00C020243C1F888205F0708D5B3
:101C80005F49A06AD1F8882022F030020243C1F8EF
:101C900088209E0608D55A49E06AD1F8882022F4A7
:101CA00040620243C1F88820980508D55449E06B8A
:101CB000D1F8882022F440220243C1F88820590537
:101CC00008D54F49206CD1F8882022F440120243F5
:101CD000C1F888205A0608D54949206BD1F88820D8
:101CE00022F440520243C1F888201F0608D5444917
:101CF000606BD1F8882022F440420243C1F888206A
:101D0000DE0508D53E49A06BD1F8882022F4403288
:101D10000243C1F8882018030FD5394AA16CD2F8C4
:101D2000883023F040630B43B1F1006FC2F8883074
:101D300044D1D36843F48013D360236859030FD58B
:101D40002F4AE16CD2F8883023F040630B43B1F1A5
:101D5000006FC2F888303CD1D36843F48013D3605D
:101D600023685A0412D52649226DD1F8883023F011
:101D700040531343B2F1805FC1F8883006D102218D
:101D8000201DFFF75BFE002818BF054623681B04D3
:101D900008D51B4A616DD2F8883023F080430B438D
:101DA000C2F88830284603B0BDE8F083FFF7FAF8A0
:101DB000A0EB080048457FF61EAF42E7B1F1806F07
:101DC000BBD10121201DFFF739FE002818BF0546B1
:101DD000B3E7B1F1806FC3D10121201DFFF72EFEC3
:101DE000002818BF0546BBE7B36D43F08053B365C9
:101DF000B36D03F080530193019B0127C9E600BF37
:101E0000001002400070004003685A6822F0E002AF
:101E10005A604268B2F5827F0AD18268B2F5004FFB
:101E200002D0B2F5806F03D11A6822F040021A6026
:101E3000826AB2F5005F07D11A6822F400521A6074
:101E40001A6842F400521A60012380F85D300023C2
:101E500080F85C300320704770B504460D46164686
:101E60002368986810F0800000D170BD6A1CF8D01B
:101E7000FFF798F8801B8542F2D82046BDE87040F5
:101E8000FFF7C2BFF8B505460C4616461F4629683F
:101E90008868204000D1F8BDB4F5C06F08BF0B7B47
:101EA000731CF5D0FFF77EF8C01B8642EFD828469A
:101EB000BDE8F840FFF7A8BF70B513460D461646BB
:101EC0000A464FF4C0510446FFF7DCFF28B1236EE9
:101ED00043F02003236603200FE0324629462046C4
:101EE000FFF7BAFF0028F2D133462A464FF4C0610B
:101EF0002046FFF7C7FF0028E9D170BD70B5044642
:101F000000284AD00023836290F85D3003F0FF027E
:101F10001BB980F85C2001F075F90223216884F870
:101F20005D300B68E26823F04003B2F5E06F0B60B0
:101F30004FF000032ED91846B2F5706F18BFA36298
:101F4000236B2BB9B2F5E06F8CBF0223012323630F
:101F5000A6686368A56933432669334366693343DA
:101F6000E6693343266A3343A66A334305F40076B1
:101F700033430B60636A1A43636B2D0C1A4305F0FD
:101F800004052A430243012300204A60206684F8A6
:101F90005D3070BD4FF48050D0E7012070BD2DE959
:101FA000F8431E4690F85C30089F012B04460D460E
:101FB000914600F01581012380F85C30FEF7F2FFB6
:101FC00094F85D306168DBB2012B80460AD0B1F530
:101FD000827F40F00381A068002840F0FF80042B3E
:101FE00040F0FC80002D49D0B9F1000F46D0002E02
:101FF00044D094F85D30E2682068C4F84090042B27
:102000001CBF052384F85D3000232366B2F5E06F22
:10201000A4F84660E687E3642365A4F84460A563FA
:10202000A687436801D8012E2AD923F48053436040
:1020300003685B065EBF036843F040030360B2F5CC
:10204000E06F56D909B1012E07D135F8023BC360C4
:10205000E38FA563013B9BB2E3870125E38F9BB22E
:102060008BB9B4F846309BB26BB94246394620462C
:10207000FFF722FF002834D020232366012030E020
:1020800043F48053D3E72268936899070DD5E38F13
:102090009BB253B14DB1A36B33F8021BD160A36364
:1020A000E38F013B9BB2E38700259368DB070FD5E5
:1020B000B4F846309BB25BB1236CD26823F8022B94
:1020C0002364B4F84630013B9BB2A4F846300125A6
:1020D000FEF768FFA0EB08008742BFD87E1CBDD08A
:1020E0000320012384F85D30002384F85C30BDE8D0
:1020F000F88309B1012E0BD1E38F9BB2012B51D98B
:1021000035F8023BC360E38FA563023B9BB2E387D4
:102110000125E38F9BB223B9B4F846309BB2002B64
:10212000A3D022689368980711D5E38F9BB273B14F
:102130006DB1E38F9BB2012BA36B3BD933F8021B2C
:10214000D160A363E38F023B9BB2E3870025226843
:102150009368D9071DD5B4F846309BB2CBB1B4F81B
:1021600046309BB2012B236C2CD9D16823F8021B7B
:102170002364B4F84630023B9BB2A4F84630B4F86E
:1021800046309BB2012B03D8536843F4805353600D
:102190000125FEF707FFA0EB08008742B9D87B1C9A
:1021A000B7D09DE72B780373A36B0133A363E38F51
:1021B000013BABE71B781373A36B0133A363E38F7E
:1021C000013BC1E7127B1A70236C01332364B4F81E
:1021D0004630013B9BB2A4F84630D9E7022080E7A5
:1021E0000220BDE8F88303681A6822F490721A602E
:1021F0009A6822F001029A60202380F8723000234E
:102200000366704790F87220222A10B402681ED12B
:10221000948CB0F85C100C40416D21F8024B416584
:10222000B0F85A10013989B2A0F85A10A1B914684F
:1022300024F490741460946824F0010494602022C3
:1022400080F8722001665DF8044B01F005B9138B2C
:102250009BB243F0080313835DF8044B704790F87A
:102260007220222A30B402681ED1928C446DB0F8DC
:102270005C10651C0A4045652270B0F85A20013A8E
:1022800092B2A0F85A20A2B901680C6824F49074A4
:102290000C608C6824F001048C60202180F872109E
:1022A000026630BC01F0D8B8138B9BB243F0080330
:1022B000138330BC7047000090F87230202B49D156
:1022C000002945D0002A43D090F87030012B41D02E
:1022D000012380F870300023036683684165B3F5FD
:1022E000805FA0F85820A0F85A2021D10269EAB9ED
:1022F00040F2FF12A0F85C2000224267222280F800
:10230000722002689168B3F5805F41F0010191602D
:102310001CD10369D3B9104B1168036641F4907165
:10232000002380F87030116018467047FF22E1E703
:1023300023B90269002AF9D07F22DBE7B3F1805F7D
:10234000DAD10269002AF7D03F22D3E7034BE3E753
:102350000120704702207047052200085F22000814
:10236000704770470368DA69196870B51607044644
:102370009D680AD1960664D58E0662D5036E002B41
:1023800000F08380BDE87040184715F0010002D1CD
:1023900011F4907F55D0D50707D5CE0505D5012579
:1023A0001D62656F45F001056567950706D528B183
:1023B00002251D62656F45F004056567560706D561
:1023C00028B104251D62656F45F002056567150794
:1023D00007D58E0600D420B108201862636F03432E
:1023E0006367636F002B50D0950605D5880603D52B
:1023F000236E0BB120469847636F1907204604D41B
:1024000023689D6815F0400517D0FFF7ECFE2368A0
:102410009A6852060DD59A68E06E22F040029A60E2
:1024200038B11A4B8363FEF739FE70B3E06E836BED
:10243000A8E72046FFF795FF70BDFFF792FF65679D
:1024400070BDD60209D5680207D54FF48012204628
:102450001A62BDE8704000F036BB160605D50D06C1
:1024600003D5636E8BB120468CE750060DD54A0626
:102470000BD51A6822F040021A60202384F87130CC
:10248000002363662046FFF76BFF70BD91240008B0
:1024900008B5806A0023A0F85A30A0F85230FFF740
:1024A00060FF08BD90F8712090F8720010437047EB
:1024B0000268C169F8B5044683680069156803437A
:1024C000606903439E480B432840034313605368ED
:1024D000E06823F44053034353609A4BA0699A4247
:1024E0001CBF236A1843936823F43063034393604B
:1024F000954B9A4219D103F55843944AD3F8883042
:1025000003F00303B1F5004FD35C40F00281082BC8
:1025100000F2C880DFE813F0D3008F00EE00C600A1
:10252000FA00C600C600C6003500894B9A4207D1A2
:1025300003F5E633874AD3F8883003F00C03E1E76C
:10254000854B9A4222D103F5E433D3F8883003F067
:102550003003102B00F0D7800BD8002B00F0AC809C
:10256000B1F5004F4FF001024FF0000300F0B180D1
:102570006DE0202B00F0BB80302BF1D1B1F5004F86
:102580007DD16068430803F58033B9E06D4B9A4212
:10259000E6D103F5C833D3F8885005F44065B5F5A6
:1025A000806F00F0858005D8002D72D0654B9A426F
:1025B000D6D177E0B5F5006F68D0B5F5406FF5D1AD
:1025C0004FF40040082568E0B0EB023F6AD8082DC0
:1025D0002ED8DFE805F0052D1C2D242D2D2D2700EC
:1025E000FFF708FA62684FF4807156080027E1FB94
:1025F0000067002330463946FEF71CFB0022574B8C
:10260000A0F5407199424DD82368D8604BE05448FA
:10261000550800230021401941F10001ECE7FEF7C5
:10262000B1FEDFE750080021002310F50000F3E7BA
:1026300001220020E3E7FFF7EFF942E0FFF7DAF9C4
:10264000626800EB5203B3FBF2F39BB20022A3F1EA
:1026500010004FF6EF71884224D82168CB6022E049
:10266000FFF7DAF9ECE76068430803F5740303F554
:102670001053B3FBF0F3E8E7FEF784FEE0E7606891
:10268000430803F50043F4E702460CE03548022511
:1026900003E0FFF7AFF90028F6D0626802EB4203CF
:1026A000834291D901220023236663661046F8BD58
:1026B000FEF768FE0425EEE7B1F5004FBED1FFF747
:1026C00099F961684A0802EB4003B3FBF1F39BB24E
:1026D0000022A3F110004FF6EF718842E2D823F0F8
:1026E0000F012068C3F342030B43C360DBE7B1F57E
:1026F000004FB8D16068430803F1F47303F59043C9
:10270000B3FBF0F3E3E7B1F5004FB5D1FEF73AFEC6
:10271000D7E7082BC6D801A252F823F03D260008BF
:102720006126000867260008A5260008792600080B
:10273000A5260008A5260008A52600087F26000873
:10274000F369FFEF0080004000380140583C010869
:10275000004400405C3C010800480040FFFC0F00C2
:10276000000024F40024F400436ADA0710B506D50B
:102770000168846A4A6822F4003222434A609C0756
:1027800006D50168C46A4A6822F4803222434A604E
:10279000590706D50168046B4A6822F48022224357
:1027A0004A601A0706D50168446B4A6822F4004261
:1027B00022434A60DC0606D50168846B8A6822F4ED
:1027C000805222438A60990606D50168C46B8A68E4
:1027D00022F4005222438A605A060FD50168046C25
:1027E0004A6822F480122243B4F5801F4A6005D162
:1027F0004A68446C22F4C00222434A601B0606D594
:102800000268816C536823F400230B43536010BDAE
:102810002DE9F041069D04460F461646984621686C
:10282000CA6937EA02030CBF01220022B24202D079
:102830000020BDE8F0816B1CF2D09DB923681A68B6
:1028400022F4D0721A609A6822F001029A60202362
:1028500084F8713084F87230002384F870300320DB
:10286000BDE8F081FEF79EFBA0EB08008542D6D2C2
:10287000E4E72DE9F3411F4690F87130202B044620
:102880000D4690464AD1002946D0002A44D090F8FF
:102890007030012B42D0012380F870300023436751
:1028A000212380F87130FEF77DFBA4F850800646A6
:1028B000A4F85280B4F85220009792B2334652B92D
:1028C00040212046FFF7A4FF58B9202384F8713037
:1028D00084F8700006E0002280212046FFF798FF70
:1028E00018B1032002B0BDE8F081A3682268B3F5F7
:1028F000805F0DD123695BB935F8023BC3F3080350
:102900001385B4F85230013B9BB2A4F85230D1E7A2
:102910002B7813850135F4E70120E3E70220E1E796
:102920002DE9F341984690F87230202B04460D466D
:10293000164660D100295CD0002A5AD090F8703039
:10294000012B58D0012380F87030002343672223E5
:1029500080F87230FEF726FBA368A4F85860B3F540
:10296000805F0746A4F85A6015D123698BB940F2FD
:10297000FF13A4F85C30B4F85C60B4F85A0080B27D
:10298000B8B9202384F8723084F8700002B0BDE832
:10299000F081FF23EDE723B92369002BF9D07F23D2
:1029A000E7E7B3F1805FE6D12369002BF7D03F233F
:1029B000DFE7CDF800803B46002220212046FFF7CC
:1029C00027FFD0B9A368B3F5805F23680CD12269D3
:1029D00052B99B8C334025F8023BB4F85A30013B86
:1029E0009BB2A4F85A30C8E79B8C33402B7001355A
:1029F000F3E70120CAE70220C8E70320C6E773B562
:102A0000044600264667FEF7CDFA23681B681A07BE
:102A1000054617D423681B685B070AD56FF07E4311
:102A2000009300222B464FF480012046FFF7F0FE72
:102A3000A0B92023002084F8713084F8700084F855
:102A400072300CE06FF07E430093324603464FF441
:102A500000112046FFF7DCFE0028DBD0032002B087
:102A600070BD10B5044660B390F8713003F0FF02FA
:102A70001BB980F8702000F06DFC2268242384F8D4
:102A80007130136823F0010313602046FFF710FD37
:102A9000012816D0636A13B12046FFF765FE23684C
:102AA0005A6822F490425A609A6822F02A029A6088
:102AB0001A6842F0010220461A60BDE81040FFF794
:102AC0009EBF012010BD704701460023DAB20133DA
:102AD000885C0028FAD14FF47A730148FFF7C9BE29
:102AE0007C0B00200139032907D8DFE801F0020838
:102AF00013241C4B1B5C303B9BB218467047194992
:102B00000B5C0844303B03EB83024378303B03EB20
:102B10004203F1E713490B5C0844303B03EB8303AA
:102B200003EB83028378303B03EB82034278303A35
:102B300002EB8202EBE70B490B5C0844303BC3EB32
:102B4000431203EB8202C378303B03EBC2034278AB
:102B5000303A02EB820202EB820203EB82038278BC
:102B6000E5E700BFF50B00202DE9F84F574D584918
:102B7000584C0D2228460AF0CDFA68B923785BB983
:102B8000AB7B322B28D0332B2AD0312B2CD10123F5
:102B900051482370FFF798FF94F80080B8F1000FB8
:102BA00041D00B224D4949480AF0B4FAF0B94C4BD8
:102BB000207018704B4B18704B48FFF785FFBFF320
:102BC0004F8F4A494A4BCA6802F4E0621343CB6014
:102BD000BFF34F8F00BFFDE7022323704548D9E7BD
:102BE000032323704448D5E74448D3E7444F3D4E80
:102BF000DFF81C91DFF81CA1DFF81CB1182417F8CE
:102C0000013F732B23D10622514638460AF082FA3F
:102C100030B9E3B2A3F11200C0B201468C4204DA2B
:102C200001344A2CEBD1BDE8F88F6A5C2C2A0BD119
:102C3000C3F110031944C9B2FFF754FFABF8000009
:102C4000337801333370EBE70131C9B2E6E76C2B1F
:102C50001CD107222B4938460AF05CFA0028DFD144
:102C6000E3B2A3F11100C0B201468C42D8DB6A5C2A
:102C70002C2A08D1C3F10F031944C9B2FFF732FF60
:102C8000A9F80000DCE70131C9B2EEE7622BC7D139
:102C9000B8F1010FC4D104221B4938460AF03AFAB0
:102CA0000028BDD1A4F11400C0B201468C42B7DBAC
:102CB0006B5C2C2B06D1091AC9B2FFF713FF134B1B
:102CC0001880BDE70131C9B2F0E700BFF50B002065
:102CD000693C010850010020773C0108BF3C010815
:102CE0000600002051010020CB3C010800ED00E06F
:102CF0000400FA05843C0108913C01089E3C01084F
:102D0000F40B0020DB3C0108E33C0108000000203C
:102D100002000020D43C0108040000209FED010ABD
:102D2000704700BF001BB74B73B50C4C0D461646E1
:102D3000204600224021FEF79FFA41F2883300939B
:102D40002A462946B3B20648FFF729F90122402155
:102D5000204602B0BDE87040FEF78EBA0008004879
:102D6000A00A002010B50446FEF71CF94FF47A7350
:102D70005843206010BD07B502A8002340F8043D69
:102D8000FFF7F0FF03B05DF804FB4FF47A73B0FB7C
:102D9000F3F0FEF70DB9000010B50B4C2378022BB1
:102DA00011D00520FEF704F9012280210748FEF723
:102DB00063FA0520FEF7FCF8012240210348FEF7E4
:102DC0005BFA0223237010BD520100200008004866
:102DD00010B5084C2378022B0BD100224021064865
:102DE000FEF74AFA002280210348FEF745FA002345
:102DF000237010BD52010020000800482DE9F04169
:102E00004FF47A76DFF83880A1FB066700240025AE
:102E10004FF480514046FEF729FA18B9AF4208BF77
:102E2000A64207D2AF4208BFA6422CBF0120002015
:102E3000BDE8F081FEF7BCF80A3445F10005E7E78C
:102E40000004004808B56822014909F057FD08BD93
:102E5000D8F700080020704770477047002070477F
:102E60009FED010A704700BF00000000002070477E
:102E700070470020704740F6FF707047022070478F
:102E800000207047704770477047012070477047B7
:102E900070477047002070477047704701207047A7
:102EA0007047704700207047F0B5A7B006AF07F134
:102EB0001800FFF7C7FF07F1180000F05BFB38B1FF
:102EC00000F0BCFE0446786028B900F0AFFB204655
:102ED0008437BD46F0BD052100F044FF786800F05E
:102EE000C1FBDFED350A9FED350A03F07FF9786805
:102EF00000F024FE0446B86018B9381D00F026FF23
:102F0000E3E707F10C0100F035FFBE8AB868B300B3
:102F10000A3323F00703ADEB030D06AD0023324661
:102F2000294600F02FFF044698BBD5ED077AD5ED72
:102F3000016A95ED007A2248FCEEE77A3146CDED44
:102F4000057AD5ED067AFCEEE77ACDED047AD5ED7B
:102F5000057AFCEEE77ACDED037AD5ED047AFCEE46
:102F6000E77ACDED027AD5ED037AFCEEE77ACDED86
:102F7000017AD5ED027AFCEEE77ACDED007AFCEE2F
:102F8000E67A17EE903AFCEEC77A17EE902A0AF02E
:102F900065F807F18005381D00F0D8FE55F8780D6A
:102FA00000F0A2FB284600F0E3FD00F03FFBB4FA7E
:102FB00084F040098CE700BFCDCCCC3ECDCCCC3DDD
:102FC000E83C010870B514228AB00DEB0200002124
:102FD00009F0B9FC354B364EDA6C42F08002DA6407
:102FE000DA6C02F080020192019ADA6C42F002027D
:102FF000DA64DA6C02F002020292029ADA6C42F0AF
:103000000402DA64DA6C02F004020392039ADA6CC6
:1030100042F00102DA64DB6C03F0010304933046F2
:1030200000224021049BFEF727F900223046802130
:10303000FEF722F900240125402305A93046059317
:10304000069507940894FEF74FF8802305A93046AB
:103050000593069507940894FEF746F84FF48053BD
:1030600005A91448059306940794FEF73DF802233A
:1030700005A94FF090400593069507940894FEF734
:1030800033F805A94FF090400595069507940894EC
:10309000FEF72AF84FF4005305A93046059306952C
:1030A00007940894FEF720F80AB070BD00100240A3
:1030B000000800480004004830B5AFB01425442291
:1030C000002106A809F03FFC2A46002101A809F0CA
:1030D0003AFC5C2200210DEB020009F034FC0122D5
:1030E0004FF480330692079303240223129206A81A
:1030F0000722149210931194159316931395FEF7CB
:1031000095F904210DEB01000F2302940024019393
:10311000039404940594FEF7DBFB052317A817938B
:103120001F942194FEF716FD4FF40070FEF7B2F8DD
:103130002FB030BD08B5FDF71DFFFFF7BDFF4FF401
:103140007A70FDF735FFFFF73DFF00F037F800F02C
:10315000C5F800F0E1F8012214491548154CFFF7B5
:10316000ABF8012202214FF09040FEF785F8FFF7FF
:103170009BFE012211464FF09040FEF77DF80022A1
:103180004FF400512046FEF777F84FF4FA70FDF740
:103190000FFF002201214FF09040FEF76DF8012251
:1031A0004FF400512046FEF767F8E0E7F40B0020EB
:1031B0007C0B0020000800487047000038B50F4C19
:1031C0000F4B4FF4E0624FF4827CE2604FF40072E8
:1031D00084E80810A2610023072208252046A36086
:1031E00023616361E36123626362A362E26223633A
:1031F0006563FEF783FE00B1656338BDA00A002059
:10320000003800407FB502680F4B9A4219D103F590
:10321000EC3301A99A6D0D4842F480429A659B6D8A
:1032200003F480430093009B4FF460430193022317
:103230000293002303930323049305230593FDF7CF
:1032400053FF07B05DF804FB00380040000400485D
:103250000A4B1A6E42F001021A661A6E82B002F030
:1032600001020092009A9A6D42F080529A659B6D1D
:1032700003F080530193019B02B07047001002409D
:1032800070477047FEE7FEE7FEE7704770477047FC
:10329000FDF780BE0F49D1F8883043F47003C1F8C0
:1032A00088300D4B1A68002042F001021A609860C5
:1032B0001A6822F0A85222F410221A604FF48052A9
:1032C000DA601A6822F480221A6098614FF0006375
:1032D0008B60704700ED00E00010024008B50C481C
:1032E0000C4B4FF4E13E80E808400C220023836041
:1032F000C360036142618361C36103624362FFF79C
:10330000B0FB18B1BDE80840FFF756BF08BD00BFCD
:103310007C0B00200038014008B50C480C4B4FF4E2
:10332000E13E80E808400C2200238360C360036113
:1033300042618361C36103624362FFF792FB18B18C
:10334000BDE80840FFF738BF08BD00BF040B0020F0
:103350000048004010B514228AB0044600210DEB4D
:10336000020009F0F0FA2368284A93422AD1284B38
:103370001A6E42F480421A661A6E02F4804201927A
:10338000019ADA6C42F00102DA64DB6C03F00103AB
:103390000293029B4FF4C063059302230693032319
:1033A000089305A907234FF090400993FDF79CFE71
:1033B000002225201146FDF71BFE2520FDF74CFEBF
:1033C0000AB010BD134A9342FAD1114B12489A6DBC
:1033D00042F480229A659A6D02F480220392039A45
:1033E000DA6C42F00202DA64DB6C03F0020304934D
:1033F000049B4FF440630593022306930323089331
:1034000005A907230993FDF76FFED9E700380140AE
:1034100000100240004800400004004807B502A91F
:103420004FF0FF3341F8040D01220348FFF721FA62
:10343000019803B05DF804FB7C0B002070B50E46CC
:1034400015460C46A31B9D4201DC284670BD14F8AE
:10345000010BFFF7E3FFF5E70268144B9A4210B542
:1034600023D1134C2378022B1FD0012B114B0DD1EC
:103470001B780A2B02D00023237010BD0223237077
:10348000FFF772FB0C4A00231380F5E719780D292A
:1034900001D10123F0E7084A08481388C1540133D9
:1034A0009BB2C82B88BF0023138010BD0038014099
:1034B00053010020F40B002054010020F50B0020E4
:1034C00070B50D480C4DFEF74DFF4FF40034284603
:1034D000FEF7E8FF202801D0013CF8D1074E064D49
:1034E0004FF40034012231462846FEF7E5FE00B9CC
:1034F00070BD013CF6D170BD7C0B0020F40B0020A8
:1035000013B5064C642301220DF107012046FFF795
:1035100007FA2046FEF726FF02B010BD7C0B002004
:10352000DFF834D0002103E00C4B5B5843500431EA
:103530000B480C4B42189A42F6D30B4A02E0002388
:1035400042F8043B094B9A42F9D3FFF7A3FE09F076
:10355000A1F9FFF7EFFDFEE700000120208E010832
:10356000000000203401002034010020C40C0020A1
:10357000FEE7000038B5244C2378EBB970B103F0B6
:10358000CBF80546002834D000F0B6FAE0B9207830
:1035900020BB1E4A1E4903F077FA12E0FFF75AFCDF
:1035A000054608B3FFF765FC054640B3194A1849BC
:1035B000022003F069FAE7E7174A1549022003F0F1
:1035C00063FA2578284638BD03F050FC0028DED089
:1035D00000F08CFF0028DAD0012323700F4A0C4939
:1035E000022003F051FAECE70D4A094903F04CFAC6
:1035F000E8E70C4A064903F047FA284638BD0A4A6C
:10360000034903F041FADDE756010020643E01085A
:10361000803D0108BC3D01087C3E0108443E010894
:103620004C3D01082C3E0108843D010810B50A4CB0
:10363000237803B910BD00F075FA03F021FC00F007
:10364000A1FF064A0649022003F01EFA03F0B8F86B
:103650000023237010BD00BF56010020A43E0108C6
:10366000803D010808B10069704710B5034A04495C
:103670000446012003F008FA204610BDE04001088E
:1036800004410108124B1B7810B58BB1044618B1E8
:10369000104B02689A4206D00F4A1049002003F0EE
:1036A000F3F9012010BD037B012B09D0002010BDD0
:1036B00018460B4A0B4B094903F0E6F9012010BDEF
:1036C000806A08B103F084FD0020207310BD00BFA4
:1036D00057010020E89EC0AC083F010804410108E2
:1036E000283F0108C83E0108114B1B7810B5B3B143
:1036F000044618B10F4B02689A4206D00E4A0F4991
:10370000002003F0C1F9012010BD037B2BB9806AB2
:1037100008B103F0A3FD01232373002010BD084B63
:10372000084A0649012003F0AFF9012010BD00BF8F
:1037300057010020E89EC0AC083F01080441010881
:10374000E03E0108283F010810B40023044C046047
:1037500001710261037383605DF8044B704700BF21
:10376000D79DC0AC8368187BB0FA80F040097047E1
:1037700038B50D460446114628461A46049B03F008
:10378000B3FCA062003018BF012038BD806A03F08E
:10379000E7BD00BF836A13B1283003F0ADBD7047A9
:1037A00010B5044603F064F900B910BD2069BDE806
:1037B000104003F0BDB800BF10B5044603F058F93F
:1037C00000B910BD2069BDE8104003F0BDB800BFCE
:1037D0002DE9F0430D4683B0044600282DD04B68F8
:1037E0000BB18B681BBB554A5549002003F04CF9BF
:1037F000237BBBB1534A5249002003F045F901260F
:10380000304603B0BDE8F08383680A781B799A429A
:1038100028D000924C4A4A49002003F035F9237B16
:10382000002BE7D10126304603B0BDE8F083474BBB
:1038300002689A42E8D0464AD6E7464A404903F031
:1038400023F96B6843B1AB6833B120463D4A3C492C
:1038500003F01AF90126D3E7384A3949002003F06A
:1038600013F9C7E7806A4E7803F07EFD86425BD18C
:10387000A36893F80C80B8F1000F5CD195F8149010
:10388000B9F1000F2AD1277B002FB3D120460126A2
:10389000FFF786FF2046E5622675FFF78DFF03F0F0
:1038A000E7F878B3A18BA06903F096F888B32046B7
:1038B000FFF776FF237D022B0CBF6E7D01260023D0
:1038C0002375E3622046FFF777FF002F98D020464C
:1038D000FFF70AFF304603B0BDE8F0832046FFF74C
:1038E000D1FE237BB0FA80F706467F091BB900287A
:1038F00086D14F46CAE74046124A114903F0C4F840
:103900000126E2E7A06A03F0C5FB2046FFF748FF67
:10391000D0E7E3690093104A104B094903F0B4F86B
:103920002046FFF73DFFCAE7A06A03F01DFD0096A1
:1039300003460B4A6FE70B4A56E700BF9040010869
:1039400004410108B03F0108E43F0108E89EC0AC13
:10395000083F0108703F010878400108F83E01085F
:1039600010400108484001082DE9F84304461F466D
:10397000894690469DF82060FFF712FF237D012BBA
:1039800004D02046BDE8F843FFF716BFE56A686833
:10399000E8B1A6B1E8686E7518B12A69394608F031
:1039A000ADFF0223237503F063F80028E9D0A06976
:1039B00003F01EF82046BDE8F843FFF7FDBEAA68F5
:1039C0004245494628BF424608F098FFE2E7034ACD
:1039D0000349032003F058F8DCE700BF0C4101085D
:1039E00004410108014B1870704700BF57010020C7
:1039F00008B518B10268064B9A4206D0054A064936
:103A0000002003F041F8002008BD012008BD00BFE0
:103A1000E89EC0AC083F01080441010808B518B190
:103A20000268064B9A4206D0054A0649002003F078
:103A30002BF8002008BD012008BD00BFD79DC0ACF9
:103A4000403F01080441010830B583B00D794C793D
:103A50008B688DF80440014600931046D2E9294353
:103A60008DF805506A46A04703B030BD70B584B0EC
:103A70004C798DF80C400B4615460A6900941E7966
:103A80008DF80D60014628469D68029502ABFFF750
:103A90006BFF04B070BD00BF30B587B00446FFF7C0
:103AA00061FE124D124B0094002818BF2B4604F102
:103AB000440104F188022046FFF75AFE054688B10A
:103AC00003A92046FFF762FE03980499BDF814206D
:103AD000BDF81630C4F8AC00C4F8B010A4F8B42097
:103AE000A4F8B630284607B030BD00BF6D3A0008D4
:103AF000493A0008FFF74EBE38B5094D2C780CB195
:103B0000204638BD00F086FA044610B92C782046CD
:103B100038BD0120FFF766FF01232B70204638BD1A
:103B20005801002008B500F0F9FA0020FFF75AFF0D
:103B3000014B00221A7008BD58010020084B10B537
:103B40001C782CB100F010FB08B10123037310BDE9
:103B50002046044B044A054902F096FF204610BD5A
:103B60005801002034410108283F01085C41010848
:103B70000D4B1B7843B130B110B504460068FFF718
:103B800037FF38B910BD7047084B094A0949012071
:103B900002F07ABF2068FFF7A7FD206800F056FA10
:103BA0000023236010BD00BF5801002048410108D8
:103BB000283F01085C41010830B583B00D794C798C
:103BC0008B688DF80440014600931046D2E92843E3
:103BD0008DF805506A46A04703B030BD70B584B07B
:103BE0004C798DF80C400B4615460A6900941E79F5
:103BF0008DF80D60014628469D68029502ABFFF7DF
:103C0000B3FE04B070BD00BF10B5044648B10379DF
:103C1000032B05D00120064A064902F035FF00209B
:103C200010BD054A0349012002F02EFF204610BDB9
:103C3000404201082C4201080442010870B54823A3
:103C4000394A7821012002F03BFE0646002863D065
:103C500000F1140422460321FFF776FD334BF36590
:103C600000250523DFED320AA6F86C309FED310AFE
:103C70002046C6E91C5502F0B9FA2046082102F098
:103C8000AFFB2046012102F0C3FB20460A2102F0CF
:103C9000D7FB20460F2102F0EBFB2046072102F064
:103CA000FFFB2046042102F013FC2046012102F014
:103CB0006FFAB2EE040A204602F0B0FA2046022162
:103CC00002F0CAFA2946204602F01CFC294620468A
:103CD00002F050FC2946204602F030FC29462046DE
:103CE00002F0D6FA2946204602F0EEFA294620468E
:103CF00002F006FB2046FF2102F068FC2946204620
:103D000002F054FC20460C4902F00AFB20460B4905
:103D100002F014FB304670BD094B0A4A0A4902F012
:103D2000B3FE304670BD00BFD7410108CDCCCC3DBD
:103D3000CDCCCC3ECDCC4C3E456B0008496B000849
:103D40006C410108F04101082C42010848B110B54E
:103D500004460068FFF758FF02F0C8FD0023236007
:103D600010BD704710B50C46FFF74EFF08B1A0F824
:103D70006C4010BD0B4620B119B1A83007C883E8CC
:103D80000700704770B586B092000191012402923D
:103D9000032600220825694603938DF800608DF8FC
:103DA00001408DF8144004958DF81520FFF710FDA3
:103DB00006B070BD30B587B00446FFF7D3FC124D96
:103DC000124B0094002818BF2B4604F1440104F163
:103DD00088022046FFF7CCFC054688B103A920469F
:103DE000FFF7D4FC03980499BDF81620B4F89C3072
:103DF000C4F8A800C4F8AC10A4F8B220A4F8B030FD
:103E0000284607B030BD00BFDD3B0008B93B0008C5
:103E1000FFF7C0BC30B583B00D798C684B79019445
:103E200001468DF800301046D2E928438DF8015044
:103E30006A46A04703B030BD70B584B04C798DF8A8
:103E400008400B4615460A6900941E798DF80960F2
:103E5000014628469D68039502ABFFF785FD04B037
:103E600070BD00BF30B587B00446FFF77BFC104D36
:103E7000104B0094002818BF2B4604F1440104F1B4
:103E800088022046FFF774FC054668B103A9204666
:103E9000FFF77CFC0399049ABDF81430C4F8A8100D
:103EA000C4F8AC20A4F8B030284607B030BD00BF3D
:103EB000393E0008153E0008FFF76CBC0B4A38B5C8
:103EC000536B0B4D8160C0E90053013308BF0123E0
:103ED0005363002388600375C362044602F0C8FD83
:103EE00000B938BD02F018FD206138BD0C0000207B
:103EF000E89EC0AC70B583681C6982B0054604B109
:103F000024692A4E6B682A4A2A490094042002F048
:103F1000BBFD306802F00CFD274A002352F8041B59
:103F200019B10133042BF9D10523202C17D864B91A
:103F3000052B21D0214A306802EB830301245D6008
:103F400002F002FD204602B070BD1C4A013C144440
:103F5000217DF1B9052B0FD001212175EBE720233D
:103F6000174A1449002002F08FFD306802F0ECFC83
:103F70000024204602B070BD0423124A0D490020DF
:103F800002F082FD306802F0DFFC0024204602B01F
:103F900070BD0D4A0749002002F076FD306802F03E
:103FA000D3FC0024204602B070BD00BF5C0100209D
:103FB000384401085C440108100000200C00002077
:103FC0006C440108D44401089844010810B582B03B
:103FD000044602F0D5F9012811D0204602F0DAF9A2
:103FE0009FED0A7ADFED0A7A87EE000A30EE270AA3
:103FF000FCEEC07ACDED017A019802B010BD4FF40D
:10400000FA630193019802B010BD00BF00007A4529
:104010000000FA4438B50B4D2C780CB1012038BDA6
:1040200002F07AFC084B2246186005F1330105F1D5
:10403000130303F8012F8B42FBD101232B700120C6
:1040400038BD00BF0C0000205C010020002854D0C7
:1040500070B5436A82B0044603B19847A368002252
:104060009A6002F005FD60BBD4E901321269002AB2
:1040700032D01569234E00950420234A234902F0CB
:1040800003FD306802F054FC25B1214B1D442B7D0B
:10409000002B33D160681F49002351F8042B12B163
:1040A0005268904223D00133042BF6D1306802F0DD
:1040B0004BFC00232046236002B0BDE8704002F0B4
:1040C00015BC206902F04CFCA06902F09DFCD4E90B
:1040D00001321269002ACCD10A4E00920B490A4AD9
:1040E000042002F0D1FC306802F022FCD2E70A4A38
:1040F00002EB830300225A60D8E7704700232B7538
:10410000C8E700BF5C010020104401085C440108BE
:104110000B000020100000200C000020F8B50E4D10
:104120002E7896B12C1D05F11407002354F8040BCA
:1041300010B1FFF78BFF3346BC42F7D133B9074BC1
:10414000186802F00DFC00232B70F8BD044A0549E5
:10415000012002F099FCF2E70C0000205C01002035
:10416000C44301085C440108F8B50546FFF756FC56
:10417000002800F097802B79052B00F29380DFE870
:1041800003F0030C465F7803614B624A62490020EA
:1041900002F07AFC00242046F8BDE8225F49B820EE
:1041A00002F072FB0446002800F0998000F1300311
:1041B00018467C22294608F0A1FB01462046FFF75D
:1041C0007DFEA3685649574A012704F144061F7132
:1041D0001E6105F11400C4E90812FFF7F7FEE06163
:1041E0002046FFF787FE00285ED0236A002BD2D03E
:1041F00002F03EFC002862D1236A2046984705461B
:104200000028C8D12046FFF721FF2C46C3E74FF412
:1042100096724249B42002F037FB0446002864D06D
:1042200000F1300318467822294608F067FB014662
:104230002046FFF743FE0227A3683B493B4AC4E7F9
:104240004FF485723549B42002F01EFB0446002865
:1042500057D000F1300318467822294608F04EFB6B
:1042600001462046FFF72AFE0327A3683049314A5A
:10427000ABE74FF4A7722949B42002F005FB0446CE
:10428000002838D000F1300318467822294608F07B
:1042900035FB01462046FFF711FE0427A368264997
:1042A000264A92E7002476E702F0E2FB10B120698B
:1042B00002F056FB204602F019FB00246BE702F0E7
:1042C0007FFB0546A061002896D1114B1C4A12497C
:1042D00002F0DAFB2046FFF7B9FE2C465BE7194BEC
:1042E000194A0D4902F0D0FB55E7184B164A0A4906
:1042F00002F0CAFB4FE7164B134A074902F0C4FB12
:1043000049E7144B104A044902F0BEFB43E700BFE3
:10431000904201086C4301085C44010853430108C2
:10432000993A0008F53A0008D943000845440008C6
:10433000B53D0008113E0008653E0008B93E000882
:1043400094430108B4420108F0410108E842010821
:10435000FC420108CC42010870B584B0CE684D79AA
:104360000C798B688DF80940014601931046D2E91B
:10437000284303968DF8085001AAA04704B070BDE9
:1043800070B584B0CE684D790C798B688DF8094092
:10439000014601931046D2E9284303968DF8085050
:1043A00001AAA04704B070BD70B586B04C79CE6844
:1043B0008DF810400B4615460A6900949C680596D6
:1043C000014628461D798DF8115003AB0394FFF781
:1043D000CBFA06B070BD00BF30B590F89E20164BEA
:1043E000164D87B00446002A08BF1D46FFF7BAF9EC
:1043F000134B0094002808BF2B4604F1440104F13C
:1044000088022046FFF7B4F9054688B103A9204683
:10441000FFF7BCF903980499BDF81420BDF81630D5
:10442000C4F8A800C4F8AC10A4F8B020A4F8B230C6
:10443000284607B030BD00BF81430008594300083B
:10444000A9430008FFF7A6B92DE9F041224F00EB80
:1044500040043B686401603C2344002583F84150DC
:1044600082B00646884602F0D5F9304600F0A4FA3C
:1044700041F2121398420DD0184B194A194900966F
:10448000284602F001FB304602F0D0F9284602B07F
:10449000BDE8F0813146092002F0D2FC396840467F
:1044A000214401F0C3F8054678B13B681C44012360
:1044B00084F8413031460A2002F0C2FC304602F056
:1044C000B5F9284602B0BDE8F0810096034B064AD4
:1044D000044902F0D9FAEDE764010020184501080B
:1044E0004447010890470108A04701082DE9F04121
:1044F0001E4D2C7814B12046BDE8F08101F0CCF9B6
:104500000028F8D000F0E8FF80460028F3D002F041
:104510005DF900EB4000400140F2FB121449154FD9
:1045200002F0B2F93860D0B126460EE03B6803EBEA
:10453000421301349E6583F8416083F8406083F83C
:104540004C6083F84D6083F84E6002F03FF9A04262
:1045500004EB4402EAD8012344462B70CBE7064B18
:10456000064A074902F090FAC5E700BF6001002043
:10457000DD4501086401002050450108F0410108B3
:104580009047010810B5074C237803B910BD01F01E
:10459000CBF900F0C7FF044B186802F0A7F900231D
:1045A000237010BD600100206401002002F032B9C8
:1045B00002F03CB92DE9F0470C46804601F0DEFDE3
:1045C000394F00EB40063B687601603E814640462D
:1045D0009D1900F0B7FF3B68E8653344D86D0028AB
:1045E0005AD001F01FF805460FCD0FC40FCD0FC4F0
:1045F0000FCD0FC43B6803EB060A95E803009AF859
:10460000413084E8030053B9DAF85C104846FFF7FC
:104610001BFF3B680446002840D003EB060A4046D7
:1046200001F0B8FEF7EE007A87EE800A0AF1440046
:10463000DFED1E7A20EE270AF6EE007A30EE270A2A
:10464000BCEEC00A8AED120A02F05AF93B68334404
:10465000012283F84D20404601F0F4FD3B68B0FA9A
:1046600080F23344520983F84C20404601F088FE22
:104670003B68B0FA80F03344400983F84E00D86DAF
:1046800000F0D2FF3B68D0E901121E4430460023FF
:10469000C6E9151240F8503FBDE8F0871E44F06DA2
:1046A00000F0B4FF2046F7E76401002000247449BD
:1046B00038B50D4D00EB400044012968603C2144B1
:1046C00091F84D3003F0FD03012B01D0002038BDDF
:1046D000C86D00F0BBFF0028F8D02B681C440223F3
:1046E00084F84D3038BD00BF6401002070B5134E12
:1046F00000EB400464013368603C234493F84D2090
:10470000022A00D070BD0546D86D01F03BF870B1AB
:104710000B4B0C4A0C49042002F0B6F9284602F073
:1047200085F833681C44032384F84D3070BD044B76
:10473000064A0549012002F0A7F9E9E764010020D3
:104740006C4501084846010890470108F4450108F6
:104750002DE9F047514F00EB400464013D68603C97
:10476000254484B095F84E80B8F1000F03D0404640
:1047700004B0BDE8F08795F84C300646002B33D1E5
:10478000D5F85C90484600F04FFF8246484600F05E
:1047900071FF8046F8B1484600F0D2FF80460028FD
:1047A0005FD09AF8003013B12B6D01332B653B6855
:1047B0001C44DAE9011294F84C306965AA65002BB3
:1047C00043D03046FFF792FF2B6D404601332B65F7
:1047D00004B0BDE8F087324B324A334902F054F955
:1047E000404604B0BDE8F08795F84D30032BC7D1A3
:1047F000D5E9113213446B6403A802F081F8D5E9BE
:104800001102039992184FF0000949EB0903B0EB2C
:10481000010860EB0009424573EB090327DBB8F19F
:10482000010F79F1000302DB404602F023F8304625
:1048300001F0F0FF3046FFF73BFF3D6825440028BC
:104840009ED0022385F84D309AE7484600F090FF4D
:104850000028B9D1124B154A1349804602F014F9C9
:1048600085E70F4B124A104902F00EF97FE7CDE9B8
:104870000089104B104A0C49012002F005F9A86C80
:104880000C4B0E4A08494FEA40084FF00009CDE9A9
:104890000089012002F0F8F8C1E700BF64010020A0
:1048A0002C450108BC460108904701082047010833
:1048B000F0460108F84401087C4601089C460108BE
:1048C000074B00EB40001B6840016038184490F82B
:1048D00040300BB980F84130C06D00F097BE00BF8A
:1048E00064010020044B1B6800EB400003EB401305
:1048F00053F8040C00F09EBE6401002030B585B072
:104900000C460DF10E022821054601F029F8BDF8EC
:104910000E20D3B22370092B39D8DFE803F02F081B
:104920000505051720050505012005B030BD120A53
:10493000102A06D801201C4B00FA02F11942D2B20B
:104940002FD111230120637005B030BDC2F30023C5
:104950000120C2F340226370A27005B030BDC2F3E3
:104960000020C2F34021C2F380236070C2F3C02252
:104970000120A170E370227105B030BD2B460B4AB7
:104980000B49002002F080F8002005B030BD0095F2
:10499000084A0749002002F077F80020207005B08F
:1049A00030BD6270C1E700BF16010100984C0108DC
:1049B000CC4C0108DC4C010800B583B002AA0021F0
:1049C00022F8021D00F0CCFFBDF8060003B05DF830
:1049D00004FB00BF00B583B002AA002322F8023D09
:1049E000112100F0BDFFBDF80600C0F3802003B028
:1049F0005DF804FB01F0C6B80022742100F0B2BFDC
:104A0000F0B585B004AA002522F8025D0E461121FA
:104A1000074600F0A5FFBDF80E2012F480641AD1FD
:104A200040F6FB739E420DD822463846102100F016
:104A300099FF384646F48062102100F093FF012070
:104A400005B0F0BD20463346084A094902F01CF87B
:104A5000204605B0F0BD28460097064B064A04499B
:104A600002F012F8284605B0F0BD00BF9C4F0108C7
:104A7000CC4C010848480108644F010862B170B588
:104A8000033982B014460546062907D8DFE801F04D
:104A9000091E35424C515E0010467047012002B09D
:104AA00070BD0DF106029D2100F05AFFBDF80660B1
:104AB00006F0070604200DF10602294626700123A0
:104AC000ADF8066002F0A4F90120E8E7961C272162
:104AD00000F046FF32462621284600F041FF2246DC
:104AE00001232946062002F093F905203246294683
:104AF000012302F08DF90120D1E7002152F8043B97
:104B000001F038F807202946D4E9003202F080F994
:104B10000120C4E7136843BB0346154A1549012029
:104B200001F0B2FF0120BAE7272100F019FF0120B0
:104B3000B5E7002152F8043B01F01CF80820294693
:104B4000D4E9003202F064F90120A8E752F8043BEE
:104B50000021284601F00EF82946D4E90032002051
:104B600002F056F9012002B070BD04320021F0E7D6
:104B7000144D0108CC4C010830B583B002AA0023C3
:104B800022F8023D1121054600F0EAFEBDF80600BC
:104B900010F4806407D028460122742100F0E2FE60
:104BA000012003B030BD2046034B044A044901F004
:104BB0006BFF204603B030BD90480108305001081B
:104BC000CC4C01080138C0B210289ABF024B53F8F0
:104BD00020000248704700BFE0470108884C0108E8
:104BE00010B582B002AA002422F8024D402100F044
:104BF000B7FEBDF806301A062BD401205C061FD480
:104C0000990614D4DA0609D45B0705D50020154AA5
:104C1000154901F039FF002002B010BD0020134AF1
:104C2000114901F031FFBDF806300020ECE700200B
:104C30000F4A0D4901F028FFBDF806300020E1E7DA
:104C400000200C4A084901F01FFFBDF80630002083
:104C5000D6E72046084A044901F016FF2046BDF871
:104C60000630CBE75C490108CC4C010844490108F7
:104C70002C49010810490108F84801082DE9F047BE
:104C800098B018AE002526F8405D04460122B221F6
:104C90000DF1600800F066FE29463246204600F01D
:104CA0005FFEDFF814A028F83E5DDFF80890642569
:104CB00009E000BFCC4C010874490108013DADB2C8
:104CC00001F0E2FEA5B142461121204600F048FE67
:104CD000BDF82260C6F309077605524649464FF0F3
:104CE00002003B46EAD4DA4ADA49022001F0CCFE5F
:104CF00018AA002522F83C5D20462A2100F030FE4B
:104D0000BDF82430D44AD349022001F0BDFE18AAD0
:104D1000204622F83A5D282100F022FE18AA2046FB
:104D200022F8385D632100F01BFE18AA204622F805
:104D3000365D612100F014FE18AA204622F8345D89
:104D40005F2100F00DFE18AA204622F8325D5D2199
:104D500000F006FE18AA204622F8305D5B2100F024
:104D6000FFFD18AA204622F82E5D592100F0F8FD1B
:104D700018AA204622F82C5D572100F0F1FD18AA50
:104D8000204622F82A5D552100F0EAFDBDF83620C4
:104D9000BDF834C0BDF83270BDF83060BDF82E00EB
:104DA000BDF82C100692BDF82A20BDF82830CDE9B8
:104DB000047CCDE90206CDE900210220A74AA549DD
:104DC00001F062FE18AA204622F8285D792100F041
:104DD000C7FD18AA204622F8265D782100F0C0FD04
:104DE00018AA204622F8245D772100F0B9FD18AA00
:104DF000204622F8225D762100F0B2FD18AA204656
:104E000022F8205D752100F0ABFD18AA204622F89B
:104E10001E5D742100F0A4FD18AA204622F81C5D36
:104E2000732100F09DFD18AA204622F81A5D722118
:104E300000F096FDBDF84620BDF844C0BDF83E0028
:104E4000BDF83C10BDF84270BDF840600692BDF858
:104E50003A20BDF83830CDE9047CCDE90021CDE918
:104E600002067F4A7B49022001F00EFE18AA204666
:104E700022F8185D682100F073FD18AA204622F878
:104E8000165D672100F06CFD18AA204622F8145D1B
:104E9000662100F065FD18AA204622F8125D652102
:104EA00000F05EFDBDF84E00BDF84C10BDF84A2084
:104EB000BDF848300092CDE901106A4A65490220E8
:104EC00001F0E2FDBDF82600BDF82410BDF8222057
:104ED000BDF820300092CDE90110634A5D490220FF
:104EE00001F0D2FD18AA204622F8105D532100F0EF
:104EF00037FDBDF850305D4A5649022001F0C4FD2F
:104F000018AA204622F80E5D402100F029FDBDF8C8
:104F10005230574A4F49022001F0B6FD18AA2046E8
:104F200022F80C5DF02100F01BFDBDF85430514A11
:104F30004849022001F0A8FD0DF156022046F1215A
:104F4000ADF85650ADF8585000F00AFDBDF8563097
:104F5000494A4049022001F097FD0DF156022046D2
:104F6000F22100F0FDFC16AA2046F92100F0F8FC21
:104F7000BDF85820BDF85630009236493F4A02200D
:104F800001F082FD0DF156022046F32100F0E8FC0D
:104F900016AA2046FA2100F0E3FCBDF85820BDF81F
:104FA000563000922B49364A022001F06DFD0DF17A
:104FB00056022046F42100F0D3FC16AA2046FB211D
:104FC00000F0CEFCBDF85820BDF8563000922149C3
:104FD0002C4A022001F058FD0DF156022046F52121
:104FE00000F0BEFC16AA2046FC2100F0B9FCBDF87A
:104FF0005820BDF8563000921649234A022001F08D
:1050000043FD0DF156022046F62100F0A9FC16AA38
:105010002046FD2100F0A4FCBDF85820BDF8563014
:1050200000920C49194A022001F02EFD0DF15602A2
:105030002046F72100F094FC16AA2046FE2100F03D
:105040008FFCBDF85820BDF85630009220E000BF1C
:1050500090490108CC4C0108AC490108CC49010831
:10506000104A0108544A0108804A0108DC4A010834
:10507000FC4A0108144B0108384B0108504B010849
:10508000744B0108984B0108BC4B0108E04B010828
:105090002649274A022001F0F7FC0DF1560220466E
:1050A000F82100F05DFC16AA2046FF2100F058FC14
:1050B000BDF85820BDF8563000921C491D4A022008
:1050C00001F0E2FC18AA204622F8065D9D2100F0BE
:1050D00047FCBDF85A30184A1449022001F0D4FCAC
:1050E00018AA204622F8045D992100F039FCBDF889
:1050F0005C30124A0D49022001F0C6FC18AA204675
:1051000022F8025D962100F02BFCBDF85E300C4ABF
:105110000649022001F0B8FC20462A46B22100F0E0
:1051200021FC012018B0BDE8F08700BFCC4C01087D
:10513000044C0108284C01084C4C0108644C01083F
:10514000744C01082DE9F04140F6FC739A4286B098
:10515000164640D806AC002324F8023D8846224675
:105160002A21054600F0FCFBBDF816305B063FD453
:105170002246112100242846ADF8164000F0F0FB2D
:10518000BDF8163013F4806717D10124324641462A
:10519000284600F0B1FC21462846009480230222D4
:1051A00000F0F0FB8023284600971A46072100F004
:1051B000E9FB204606B0BDE8F081124B124A1349C4
:1051C0000095204601F060FC2846FFF757FD204679
:1051D00006B0BDE8F0810024CDE90024204602930A
:1051E0000B4A0A4901F050FC204606B0BDE8F081A8
:1051F0002B46084A0549012001F046FC2846FFF7E6
:105200003DFDB5E724480108D04D0108CC4C01080C
:105210003C4D01087C4D01082DE9F047244EDFF894
:10522000A490DFF89480A6FB013684B00446924631
:10523000B6096425002712E022F8027D204600F01E
:105240008FFBBDF80EC01CF0400F23464A46414676
:105250004FF0010018D101F017FC013D07D0314695
:10526000204601F0EFFA04AA2A210028E4D12346BF
:10527000104A1149002001F007FC2046FFF7FEFC10
:10528000002004B0BDE8F087BAF1000F05D0514608
:105290002046FFF733FB0028F3D10094074B084A60
:1052A0000549002001F0F0FB002004B0BDE8F087C4
:1052B000D34D6210D0500108CC4C01086848010859
:1052C0009C5001087850010830B583B002AA002331
:1052D00022F8023D3821054600F042FBBDF80640A9
:1052E00014B1012003B030BD2B46054A05492046C4
:1052F00001F0CAFB2846FFF7C1FC204603B030BDD1
:105300000C4F0108CC4C010870B584B00E46054620
:10531000FFF732FC20B32846FFF7D6FF0446B8B1AA
:10532000314602AA2846FFF777FF0446A8B19DF848
:105330000830022B1DD0062B38D0012B25D000932E
:105340001E4A1F4B1F49002001F09EFB002404E071
:105350001B4B1D4A1B4901F097FB204604B070BD52
:10536000174B1A4A1749044601F08EFB204604B039
:1053700070BD2846FFF7A8FF04460028EDD1104B6A
:10538000134A104901F080FBE7E79DF809300D4909
:10539000013BDBB2102B96BF0E4A0F4B52F8233065
:1053A0000E4A002001F070FB0024D6E70C4A0549A4
:1053B000002001F069FB0024CFE700BFB44E0108D4
:1053C000D4480108CC4C0108284E0108084E0108B9
:1053D000E04E0108E0470108884C0108904E0108A2
:1053E000584E0108F0B585B00E460546FFF7C4FBE0
:1053F00070B3032702AA31462846FFF70DFF044683
:10540000002848D09DF80830022B2AD0062B28D03F
:10541000012B0AD00093264A264B2749002001F091
:1054200033FB0024204605B0F0BD9DF80930224929
:10543000013BDBB2102B96BF204A214B52F82330A0
:10544000204A002001F020FB0024204605B0F0BDDA
:10545000184B1D4A1849044601F016FB204605B0BA
:10546000F0BD2846FFF730FF0446D0B19DF8083064
:10547000022B0CD0013FBDD10E4B144A0E493846C9
:1054800001F002FB2846FFF7F9FB3C46CAE7284635
:10549000FFF7A6FBC6E7074B0D4A074901F0F4FAF0
:1054A000C0E7044B0B4A044901F0EEFABAE700BF2B
:1054B000B44E0108B8480108CC4C0108E047010887
:1054C000884C0108904E0108084E01080C50010854
:1054D000C04F0108E44F010838B50C4D2C780CB1D1
:1054E000204638BD01F072F9094A60235C2101F0C1
:1054F000E7F9084A106018B101242C70204638BD25
:10550000054B064A064901F0BFFAE9E768010020A9
:10551000345201086C010020A8510108F041010833
:105520004852010810B5054C237803B910BD044B4F
:10553000186801F0DBF90023237010BD680100201A
:105540006C0100202DE9F04F83B0074600F016FEF5
:105550002B4A3B68D2F800805C2606FB00F68146A9
:10556000384698475C3E08EB06050446A8650028C7
:1055700044D0D0E900A305F1140B50465A463946F1
:105580009847034638B9226A20461D469047284668
:1055900003B0BDE8F08F002348F806903846EB6072
:1055A0002B7400F0EDFE012826D0384600F0F2FE04
:1055B000DFED147A87EE800A30EE270AFCEEC07A1F
:1055C00017EE903AAB6039465B465046A76800221A
:1055D000B84703460028D6D058F80600002201A993
:1055E000FFF708FA019B6B65284600232B6585F8B9
:1055F0004C3003B0BDE8F08F034BE3E70546C6E748
:105600006C0100200024F44980841E0048B1836DA1
:105610003BB110B51A6A0446184690470023A365AB
:1056200010BD7047143070474C307047836DDA6896
:105630001868104730B4C36B45698469826B0A816E
:10564000013B0D604C604B8130BC704738B504465F
:10565000806D00230A46856800681946A84738B15E
:10566000A36D1A691868904710B10123237438BDDF
:10567000002038BD30B585B08168054602AA0068B3
:10568000FFF7CAFD044678B19DF80830022B0ED012
:10569000062B23D0012B13D00093204A204B214905
:1056A000002001F0F1F90024204605B030BD1E4A6B
:1056B0001C49002001F0E8F90024204605B030BD67
:1056C0009DF80900FFF77EFA184A164903460020A4
:1056D00001F0DAF90024204605B030BD144A114922
:1056E000042001F0D1F99DF809309DF80B2085F8D0
:1056F0004C205BB99DF80A50002DD5D00D4B0E4AB9
:10570000084904202C4601F0BFF9CDE7094B0B4AAC
:105710000449042001F0B8F9ECE700BFB44E0108D9
:10572000C45101084852010808530108904E01086D
:105730007C520108D8510108EC520108CC520108F2
:1057400038B5836D05465A6918689047286518B1C1
:1057500000232B74012038BD0446034A034901F09D
:1057600093F9204638BD00BF58520108485201083D
:10577000836D10B59A6904461868904708B10123F3
:10578000237410BD037C10B5044633B1836DDA6910
:10579000186890470023237410BD81680068FFF7E4
:1057A000B3FDF7E730B541F4405183B04BBA15462D
:1057B000002406226946ADF80030ADF80240ADF88D
:1057C000044001F04BF8BDF804305BBA2B8003B005
:1057D00030BD00BF2DE9F04F82462E480AF18044CB
:1057E00087B000689DF840500292013C1F46039428
:1057F0000E4650F8244001F001F84308019309BF18
:10580000FB1CA3F103080193B846002F37D0002DED
:1058100014BF4FF4E0494FF400490FFA89F94745A6
:1058200088BF019D49EA060107F1FF3298BFFD1CC0
:105830004FF0000349BA52BAA3802180628021460A
:105840004FEA4502504694BFBB46C34601F006F8F6
:105850002046294601F08CFD0498BDF814202060F4
:10586000A28004EB4B04EB1EC5F103052068A2885F
:1058700004901E447F19ADF81420B6B2CFD1054B69
:10588000039A1B6853F82230029A0633136007B05C
:10589000BDE8F08F740100202DE9F843DFF8849013
:1058A00099F8007017B13846BDE8F88300F08EFF14
:1058B00040F2091280001649164D00F0E5FF2860FD
:1058C000E0B1DFF84C803C4609E02E6800F0DCFFD8
:1058D0002B6846F8240053F824307BB1013400F0E3
:1058E00075FFA0424FF48A72414641F20600ECD89F
:1058F000012789F800703846BDE8F883064B074A4F
:105900000749002001F0C0F83846BDE8F88300BF21
:105910009F5301087401002038530108F041010829
:10592000AC5301087001002070B50B4E33788BB179
:105930000A4D002405E02B6853F8240000F0D6FF40
:10594000013400F043FFA042F5D8286800F0CEFFF4
:105950000023337070BD00BF70010020740100206F
:10596000FFF720BF10B541F4805182B04BBA54BA52
:1059700001A90422ADF80430ADF8064000F06EFF36
:1059800002B010BD2DE9F04182B08846BDF820403C
:10599000194617460DF102021D460646FFF702FFA3
:1059A000BDF9020004FA08F242403A40424054BABB
:1059B00045F4805504226DBA30460DEB0201ADF876
:1059C0000450ADF8064000F049FF02B0BDE8F08198
:1059D0002DE9F04F83B000AF984638600D469146F0
:1059E00000F00CFF80081ABF831E7B60C7F804809C
:1059F000B8F1000F2CD07B68434528BF43465900BF
:105A0000CA1C520002F1080020F00700EB46ADEB83
:105A1000000D6E4645F42040013949BA40BA4FEABC
:105A2000830A71803080314638681C4600F016FFCA
:105A3000B11D5246484606F061FF4846214601F036
:105A4000A1FC2544B8EB0408D144ADB2DD46D2D167
:105A50000C37BD46BDE8F08F2DE9F04F85B000AFA3
:105A6000984638608B46924600F0C8FE80081ABF00
:105A700000F1FF337B60C7F80480B8F1000F37D026
:105A800053467A68C7F80CD0424528BF4246950075
:105A900005F10A0121F00701ADEB010DE9461446BD
:105AA000ADEB010D2A4619464846BB60EA4606F0B2
:105AB00025FF2146484601F065FC50464BF4A042C4
:105AC00052BA2E4620F8022B49462A46023606F0E4
:105AD00015FF32465146386800F0C0FEBB68D7F863
